{
  "contractName": "BT_Token",
  "abi": [
    {
      "inputs": [],
      "payable": false,
      "stateMutability": "nonpayable",
      "type": "constructor"
    },
    {
      "anonymous": false,
      "inputs": [
        {
          "indexed": true,
          "internalType": "address",
          "name": "_owner",
          "type": "address"
        },
        {
          "indexed": true,
          "internalType": "address",
          "name": "_spender",
          "type": "address"
        },
        {
          "indexed": false,
          "internalType": "uint256",
          "name": "_value",
          "type": "uint256"
        }
      ],
      "name": "Approval",
      "type": "event"
    },
    {
      "anonymous": false,
      "inputs": [
        {
          "indexed": true,
          "internalType": "address",
          "name": "_from",
          "type": "address"
        },
        {
          "indexed": true,
          "internalType": "address",
          "name": "_to",
          "type": "address"
        },
        {
          "indexed": false,
          "internalType": "uint256",
          "name": "_value",
          "type": "uint256"
        }
      ],
      "name": "Transfer",
      "type": "event"
    },
    {
      "constant": true,
      "inputs": [
        {
          "internalType": "address",
          "name": "",
          "type": "address"
        },
        {
          "internalType": "address",
          "name": "",
          "type": "address"
        }
      ],
      "name": "allowance",
      "outputs": [
        {
          "internalType": "uint256",
          "name": "",
          "type": "uint256"
        }
      ],
      "payable": false,
      "stateMutability": "view",
      "type": "function"
    },
    {
      "constant": true,
      "inputs": [
        {
          "internalType": "address",
          "name": "",
          "type": "address"
        }
      ],
      "name": "amountBlocked",
      "outputs": [
        {
          "internalType": "uint256",
          "name": "",
          "type": "uint256"
        }
      ],
      "payable": false,
      "stateMutability": "view",
      "type": "function"
    },
    {
      "constant": true,
      "inputs": [
        {
          "internalType": "address",
          "name": "",
          "type": "address"
        }
      ],
      "name": "balanceOf",
      "outputs": [
        {
          "internalType": "uint256",
          "name": "",
          "type": "uint256"
        }
      ],
      "payable": false,
      "stateMutability": "view",
      "type": "function"
    },
    {
      "constant": true,
      "inputs": [],
      "name": "decimals",
      "outputs": [
        {
          "internalType": "uint8",
          "name": "",
          "type": "uint8"
        }
      ],
      "payable": false,
      "stateMutability": "view",
      "type": "function"
    },
    {
      "constant": true,
      "inputs": [],
      "name": "name",
      "outputs": [
        {
          "internalType": "string",
          "name": "",
          "type": "string"
        }
      ],
      "payable": false,
      "stateMutability": "view",
      "type": "function"
    },
    {
      "constant": true,
      "inputs": [],
      "name": "standard",
      "outputs": [
        {
          "internalType": "string",
          "name": "",
          "type": "string"
        }
      ],
      "payable": false,
      "stateMutability": "view",
      "type": "function"
    },
    {
      "constant": true,
      "inputs": [],
      "name": "symbol",
      "outputs": [
        {
          "internalType": "string",
          "name": "",
          "type": "string"
        }
      ],
      "payable": false,
      "stateMutability": "view",
      "type": "function"
    },
    {
      "constant": true,
      "inputs": [],
      "name": "totalSupply",
      "outputs": [
        {
          "internalType": "uint256",
          "name": "",
          "type": "uint256"
        }
      ],
      "payable": false,
      "stateMutability": "view",
      "type": "function"
    },
    {
      "constant": false,
      "inputs": [
        {
          "internalType": "address",
          "name": "_to",
          "type": "address"
        },
        {
          "internalType": "uint256",
          "name": "_value",
          "type": "uint256"
        }
      ],
      "name": "transfer",
      "outputs": [
        {
          "internalType": "bool",
          "name": "success",
          "type": "bool"
        }
      ],
      "payable": false,
      "stateMutability": "nonpayable",
      "type": "function"
    },
    {
      "constant": false,
      "inputs": [
        {
          "internalType": "address",
          "name": "_spender",
          "type": "address"
        },
        {
          "internalType": "uint256",
          "name": "_value",
          "type": "uint256"
        }
      ],
      "name": "approve",
      "outputs": [
        {
          "internalType": "bool",
          "name": "success",
          "type": "bool"
        }
      ],
      "payable": false,
      "stateMutability": "nonpayable",
      "type": "function"
    },
    {
      "constant": false,
      "inputs": [
        {
          "internalType": "address",
          "name": "_from",
          "type": "address"
        },
        {
          "internalType": "address",
          "name": "_to",
          "type": "address"
        },
        {
          "internalType": "uint256",
          "name": "_value",
          "type": "uint256"
        }
      ],
      "name": "transferFrom",
      "outputs": [
        {
          "internalType": "bool",
          "name": "success",
          "type": "bool"
        }
      ],
      "payable": false,
      "stateMutability": "nonpayable",
      "type": "function"
    }
  ],
  "bytecode": "0x60806040526040518060400160405280600881526020017f425420546f6b656e000000000000000000000000000000000000000000000000815250600090805190602001906200005192919062000172565b506040518060400160405280600281526020017f4254000000000000000000000000000000000000000000000000000000000000815250600190805190602001906200009f92919062000172565b506040518060400160405280600d81526020017f425420546f6b656e2076312e300000000000000000000000000000000000000081525060029080519060200190620000ed92919062000172565b5069d3c21bcecceda10000006003556012600460006101000a81548160ff021916908360ff1602179055503480156200012557600080fd5b50600354600560003373ffffffffffffffffffffffffffffffffffffffff1673ffffffffffffffffffffffffffffffffffffffff1681526020019081526020016000208190555062000221565b828054600181600116156101000203166002900490600052602060002090601f016020900481019282601f10620001b557805160ff1916838001178555620001e6565b82800160010185558215620001e6579182015b82811115620001e5578251825591602001919060010190620001c8565b5b509050620001f59190620001f9565b5090565b6200021e91905b808211156200021a57600081600090555060010162000200565b5090565b90565b610e5580620002316000396000f3fe608060405234801561001057600080fd5b50600436106100a95760003560e01c80635a3b7e42116100715780635a3b7e421461025f57806370a08231146102e257806395d89b411461033a578063a9059cbb146103bd578063dd62ed3e14610423578063f9f72f151461049b576100a9565b806306fdde03146100ae578063095ea7b31461013157806318160ddd1461019757806323b872dd146101b5578063313ce5671461023b575b600080fd5b6100b66104f3565b6040518080602001828103825283818151815260200191508051906020019080838360005b838110156100f65780820151818401526020810190506100db565b50505050905090810190601f1680156101235780820380516001836020036101000a031916815260200191505b509250505060405180910390f35b61017d6004803603604081101561014757600080fd5b81019080803573ffffffffffffffffffffffffffffffffffffffff16906020019092919080359060200190929190505050610591565b604051808215151515815260200191505060405180910390f35b61019f610683565b6040518082815260200191505060405180910390f35b610221600480360360608110156101cb57600080fd5b81019080803573ffffffffffffffffffffffffffffffffffffffff169060200190929190803573ffffffffffffffffffffffffffffffffffffffff16906020019092919080359060200190929190505050610689565b604051808215151515815260200191505060405180910390f35b610243610abc565b604051808260ff1660ff16815260200191505060405180910390f35b610267610acf565b6040518080602001828103825283818151815260200191508051906020019080838360005b838110156102a757808201518184015260208101905061028c565b50505050905090810190601f1680156102d45780820380516001836020036101000a031916815260200191505b509250505060405180910390f35b610324600480360360208110156102f857600080fd5b81019080803573ffffffffffffffffffffffffffffffffffffffff169060200190929190505050610b6d565b6040518082815260200191505060405180910390f35b610342610b85565b6040518080602001828103825283818151815260200191508051906020019080838360005b83811015610382578082015181840152602081019050610367565b50505050905090810190601f1680156103af5780820380516001836020036101000a031916815260200191505b509250505060405180910390f35b610409600480360360408110156103d357600080fd5b81019080803573ffffffffffffffffffffffffffffffffffffffff16906020019092919080359060200190929190505050610c23565b604051808215151515815260200191505060405180910390f35b6104856004803603604081101561043957600080fd5b81019080803573ffffffffffffffffffffffffffffffffffffffff169060200190929190803573ffffffffffffffffffffffffffffffffffffffff169060200190929190505050610de3565b6040518082815260200191505060405180910390f35b6104dd600480360360208110156104b157600080fd5b81019080803573ffffffffffffffffffffffffffffffffffffffff169060200190929190505050610e08565b6040518082815260200191505060405180910390f35b60008054600181600116156101000203166002900480601f0160208091040260200160405190810160405280929190818152602001828054600181600116156101000203166002900480156105895780601f1061055e57610100808354040283529160200191610589565b820191906000526020600020905b81548152906001019060200180831161056c57829003601f168201915b505050505081565b600081600660003373ffffffffffffffffffffffffffffffffffffffff1673ffffffffffffffffffffffffffffffffffffffff16815260200190815260200160002060008573ffffffffffffffffffffffffffffffffffffffff1673ffffffffffffffffffffffffffffffffffffffff168152602001908152602001600020819055508273ffffffffffffffffffffffffffffffffffffffff163373ffffffffffffffffffffffffffffffffffffffff167f8c5be1e5ebec7d5bd14f71427d1e84f3dd0314c0f7b2291e5b200ac8c7c3b925846040518082815260200191505060405180910390a36001905092915050565b60035481565b6000600560008573ffffffffffffffffffffffffffffffffffffffff1673ffffffffffffffffffffffffffffffffffffffff16815260200190815260200160002054821115610740576040517f08c379a00000000000000000000000000000000000000000000000000000000081526004018080602001828103825260128152602001807f4e6f7420656e6f7567682062616c616e6365000000000000000000000000000081525060200191505060405180910390fd5b600660008573ffffffffffffffffffffffffffffffffffffffff1673ffffffffffffffffffffffffffffffffffffffff16815260200190815260200160002060003373ffffffffffffffffffffffffffffffffffffffff1673ffffffffffffffffffffffffffffffffffffffff16815260200190815260200160002054821115610832576040517f08c379a00000000000000000000000000000000000000000000000000000000081526004018080602001828103825260148152602001807f4e6f7420656e6f75676820616c6c6f77616e636500000000000000000000000081525060200191505060405180910390fd5b600760008573ffffffffffffffffffffffffffffffffffffffff1673ffffffffffffffffffffffffffffffffffffffff16815260200190815260200160002054600560008673ffffffffffffffffffffffffffffffffffffffff1673ffffffffffffffffffffffffffffffffffffffff1681526020019081526020016000205403821115610928576040517f08c379a00000000000000000000000000000000000000000000000000000000081526004018080602001828103825260178152602001807f416d6f756e7420686173206265656e20626c6f636b656400000000000000000081525060200191505060405180910390fd5b81600560008673ffffffffffffffffffffffffffffffffffffffff1673ffffffffffffffffffffffffffffffffffffffff1681526020019081526020016000206000828254039250508190555081600560008573ffffffffffffffffffffffffffffffffffffffff1673ffffffffffffffffffffffffffffffffffffffff1681526020019081526020016000206000828254019250508190555081600660008673ffffffffffffffffffffffffffffffffffffffff1673ffffffffffffffffffffffffffffffffffffffff16815260200190815260200160002060003373ffffffffffffffffffffffffffffffffffffffff1673ffffffffffffffffffffffffffffffffffffffff168152602001908152602001600020600082825403925050819055508273ffffffffffffffffffffffffffffffffffffffff168473ffffffffffffffffffffffffffffffffffffffff167fddf252ad1be2c89b69c2b068fc378daa952ba7f163c4a11628f55a4df523b3ef846040518082815260200191505060405180910390a3600190509392505050565b600460009054906101000a900460ff1681565b60028054600181600116156101000203166002900480601f016020809104026020016040519081016040528092919081815260200182805460018160011615610100020316600290048015610b655780601f10610b3a57610100808354040283529160200191610b65565b820191906000526020600020905b815481529060010190602001808311610b4857829003601f168201915b505050505081565b60056020528060005260406000206000915090505481565b60018054600181600116156101000203166002900480601f016020809104026020016040519081016040528092919081815260200182805460018160011615610100020316600290048015610c1b5780601f10610bf057610100808354040283529160200191610c1b565b820191906000526020600020905b815481529060010190602001808311610bfe57829003601f168201915b505050505081565b600081600560003373ffffffffffffffffffffffffffffffffffffffff1673ffffffffffffffffffffffffffffffffffffffff168152602001908152602001600020541015610cda576040517f08c379a00000000000000000000000000000000000000000000000000000000081526004018080602001828103825260128152602001807f4e6f7420656e6f7567682062616c616e6365000000000000000000000000000081525060200191505060405180910390fd5b81600560003373ffffffffffffffffffffffffffffffffffffffff1673ffffffffffffffffffffffffffffffffffffffff1681526020019081526020016000206000828254039250508190555081600560008573ffffffffffffffffffffffffffffffffffffffff1673ffffffffffffffffffffffffffffffffffffffff168152602001908152602001600020600082825401925050819055508273ffffffffffffffffffffffffffffffffffffffff163373ffffffffffffffffffffffffffffffffffffffff167fddf252ad1be2c89b69c2b068fc378daa952ba7f163c4a11628f55a4df523b3ef846040518082815260200191505060405180910390a36001905092915050565b6006602052816000526040600020602052806000526040600020600091509150505481565b6007602052806000526040600020600091509050548156fea265627a7a7231582056d857f981354349b2f37dc42fd08b36fa3e2f2622eed54efb324f8b9d7604b464736f6c63430005100032",
  "source": "//// SPDX-License-Identifier: MIT\npragma solidity >=0.5.0 <0.7.0;\n\ncontract BT_Token {\n    string  public name = \"BT Token\";\n    string  public symbol = \"BT\";\n    string  public standard = \"BT Token v1.0\";\n    uint256 public totalSupply = 1000000000000000000000000; //1 million tokens\n    uint8   public decimals = 18;\n\n    event Transfer(\n        address indexed _from,\n        address indexed _to,\n        uint256 _value\n    );\n\n    event Approval(\n        address indexed _owner,\n        address indexed _spender,\n        uint256 _value\n    );\n\n    mapping(address => uint256) public balanceOf;\n    mapping(address => mapping(address => uint256)) public allowance;\n    mapping(address => uint256) public amountBlocked;\n\n    constructor() public {\n        balanceOf[msg.sender] = totalSupply;\n    }\n\n    function transfer(address _to, uint256 _value) public returns (bool success) {\n        require(balanceOf[msg.sender] >= _value, \"Not enough balance\");\n        balanceOf[msg.sender] -= _value;\n        balanceOf[_to] += _value;\n        emit Transfer(msg.sender, _to, _value);\n        return true;\n    }\n\n    function approve(address _spender, uint256 _value) public returns (bool success) {\n        allowance[msg.sender][_spender] = _value;\n        emit Approval(msg.sender, _spender, _value);\n        return true;\n    }\n\n    function transferFrom(address _from, address _to, uint256 _value) public returns (bool success) {\n        require(_value <= balanceOf[_from], \"Not enough balance\");\n        require(_value <= allowance[_from][msg.sender], \"Not enough allowance\");\n        require(_value <= (balanceOf[_from]-amountBlocked[_from]), \"Amount has been blocked\");\n        balanceOf[_from] -= _value;\n        balanceOf[_to] += _value;\n        allowance[_from][msg.sender] -= _value;\n        emit Transfer(_from, _to, _value);\n        return true;\n    }\n}\n\n\n\n",
  "sourcePath": "/home/ajinkya/Documents/Dapps/BlockTrade-UserApp/src/contracts/BT_Token.sol",
  "compiler": {
    "name": "solc",
    "version": "0.5.16+commit.9c3226ce.Emscripten.clang"
  },
  "schemaVersion": "3.2.0",
  "updatedAt": "2020-11-06T10:02:57.856Z",
  "networkType": "ethereum",
  "devdoc": {
    "methods": {}
  },
  "userdoc": {
    "methods": {}
  }
}