{
  "contractName": "Main",
  "abi": [
    {
      "inputs": [],
      "payable": false,
      "stateMutability": "nonpayable",
      "type": "constructor"
    },
    {
      "anonymous": false,
      "inputs": [
        {
          "indexed": true,
          "internalType": "address",
          "name": "_owner",
          "type": "address"
        },
        {
          "indexed": true,
          "internalType": "address",
          "name": "_spender",
          "type": "address"
        },
        {
          "indexed": false,
          "internalType": "uint256",
          "name": "_value",
          "type": "uint256"
        }
      ],
      "name": "Approval",
      "type": "event"
    },
    {
      "anonymous": false,
      "inputs": [
        {
          "indexed": false,
          "internalType": "address",
          "name": "account",
          "type": "address"
        },
        {
          "indexed": false,
          "internalType": "uint256",
          "name": "amount",
          "type": "uint256"
        },
        {
          "indexed": false,
          "internalType": "uint256",
          "name": "rate",
          "type": "uint256"
        }
      ],
      "name": "TokensPurchased",
      "type": "event"
    },
    {
      "anonymous": false,
      "inputs": [
        {
          "indexed": false,
          "internalType": "address",
          "name": "account",
          "type": "address"
        },
        {
          "indexed": false,
          "internalType": "uint256",
          "name": "amount",
          "type": "uint256"
        },
        {
          "indexed": false,
          "internalType": "uint256",
          "name": "rate",
          "type": "uint256"
        }
      ],
      "name": "TokensSold",
      "type": "event"
    },
    {
      "anonymous": false,
      "inputs": [
        {
          "indexed": true,
          "internalType": "address",
          "name": "_from",
          "type": "address"
        },
        {
          "indexed": true,
          "internalType": "address",
          "name": "_to",
          "type": "address"
        },
        {
          "indexed": false,
          "internalType": "uint256",
          "name": "_value",
          "type": "uint256"
        }
      ],
      "name": "Transfer",
      "type": "event"
    },
    {
      "anonymous": false,
      "inputs": [
        {
          "indexed": false,
          "internalType": "address",
          "name": "from",
          "type": "address"
        },
        {
          "indexed": false,
          "internalType": "uint256",
          "name": "amount",
          "type": "uint256"
        }
      ],
      "name": "Transfer30",
      "type": "event"
    },
    {
      "constant": true,
      "inputs": [
        {
          "internalType": "address",
          "name": "",
          "type": "address"
        },
        {
          "internalType": "address",
          "name": "",
          "type": "address"
        }
      ],
      "name": "allowance",
      "outputs": [
        {
          "internalType": "uint256",
          "name": "",
          "type": "uint256"
        }
      ],
      "payable": false,
      "stateMutability": "view",
      "type": "function"
    },
    {
      "constant": true,
      "inputs": [
        {
          "internalType": "address",
          "name": "",
          "type": "address"
        }
      ],
      "name": "amountBlocked",
      "outputs": [
        {
          "internalType": "uint256",
          "name": "",
          "type": "uint256"
        }
      ],
      "payable": false,
      "stateMutability": "view",
      "type": "function"
    },
    {
      "constant": true,
      "inputs": [
        {
          "internalType": "address",
          "name": "",
          "type": "address"
        }
      ],
      "name": "balanceOf",
      "outputs": [
        {
          "internalType": "uint256",
          "name": "",
          "type": "uint256"
        }
      ],
      "payable": false,
      "stateMutability": "view",
      "type": "function"
    },
    {
      "constant": true,
      "inputs": [],
      "name": "decimals",
      "outputs": [
        {
          "internalType": "uint8",
          "name": "",
          "type": "uint8"
        }
      ],
      "payable": false,
      "stateMutability": "view",
      "type": "function"
    },
    {
      "constant": true,
      "inputs": [],
      "name": "name",
      "outputs": [
        {
          "internalType": "string",
          "name": "",
          "type": "string"
        }
      ],
      "payable": false,
      "stateMutability": "view",
      "type": "function"
    },
    {
      "constant": true,
      "inputs": [],
      "name": "rate",
      "outputs": [
        {
          "internalType": "uint256",
          "name": "",
          "type": "uint256"
        }
      ],
      "payable": false,
      "stateMutability": "view",
      "type": "function"
    },
    {
      "constant": true,
      "inputs": [],
      "name": "standard",
      "outputs": [
        {
          "internalType": "string",
          "name": "",
          "type": "string"
        }
      ],
      "payable": false,
      "stateMutability": "view",
      "type": "function"
    },
    {
      "constant": true,
      "inputs": [],
      "name": "symbol",
      "outputs": [
        {
          "internalType": "string",
          "name": "",
          "type": "string"
        }
      ],
      "payable": false,
      "stateMutability": "view",
      "type": "function"
    },
    {
      "constant": true,
      "inputs": [],
      "name": "totalSupply",
      "outputs": [
        {
          "internalType": "uint256",
          "name": "",
          "type": "uint256"
        }
      ],
      "payable": false,
      "stateMutability": "view",
      "type": "function"
    },
    {
      "constant": false,
      "inputs": [
        {
          "internalType": "address",
          "name": "_to",
          "type": "address"
        },
        {
          "internalType": "uint256",
          "name": "_value",
          "type": "uint256"
        }
      ],
      "name": "transfer",
      "outputs": [
        {
          "internalType": "bool",
          "name": "success",
          "type": "bool"
        }
      ],
      "payable": false,
      "stateMutability": "nonpayable",
      "type": "function"
    },
    {
      "constant": false,
      "inputs": [
        {
          "internalType": "address",
          "name": "_spender",
          "type": "address"
        },
        {
          "internalType": "uint256",
          "name": "_value",
          "type": "uint256"
        }
      ],
      "name": "approve",
      "outputs": [
        {
          "internalType": "bool",
          "name": "success",
          "type": "bool"
        }
      ],
      "payable": false,
      "stateMutability": "nonpayable",
      "type": "function"
    },
    {
      "constant": false,
      "inputs": [
        {
          "internalType": "address",
          "name": "_from",
          "type": "address"
        },
        {
          "internalType": "address",
          "name": "_to",
          "type": "address"
        },
        {
          "internalType": "uint256",
          "name": "_value",
          "type": "uint256"
        }
      ],
      "name": "transferFrom",
      "outputs": [
        {
          "internalType": "bool",
          "name": "success",
          "type": "bool"
        }
      ],
      "payable": false,
      "stateMutability": "nonpayable",
      "type": "function"
    },
    {
      "constant": false,
      "inputs": [],
      "name": "buyTokens",
      "outputs": [],
      "payable": true,
      "stateMutability": "payable",
      "type": "function"
    },
    {
      "constant": false,
      "inputs": [
        {
          "internalType": "uint256",
          "name": "_amount",
          "type": "uint256"
        }
      ],
      "name": "sellToken",
      "outputs": [],
      "payable": false,
      "stateMutability": "nonpayable",
      "type": "function"
    },
    {
      "constant": false,
      "inputs": [
        {
          "internalType": "uint256",
          "name": "_amount",
          "type": "uint256"
        },
        {
          "internalType": "string",
          "name": "_tId",
          "type": "string"
        },
        {
          "internalType": "address",
          "name": "_reciever",
          "type": "address"
        }
      ],
      "name": "transfer30",
      "outputs": [],
      "payable": false,
      "stateMutability": "nonpayable",
      "type": "function"
    },
    {
      "constant": false,
      "inputs": [
        {
          "internalType": "string",
          "name": "_tradeId",
          "type": "string"
        }
      ],
      "name": "transfer70",
      "outputs": [],
      "payable": false,
      "stateMutability": "nonpayable",
      "type": "function"
    }
  ],
  "bytecode": "0x60806040526040518060400160405280600881526020017f425420546f6b656e000000000000000000000000000000000000000000000000815250600090805190602001906200005192919062000177565b506040518060400160405280600281526020017f4254000000000000000000000000000000000000000000000000000000000000815250600190805190602001906200009f92919062000177565b506040518060400160405280600d81526020017f425420546f6b656e2076312e300000000000000000000000000000000000000081525060029080519060200190620000ed92919062000177565b5069d3c21bcecceda10000006003556012600460006101000a81548160ff021916908360ff16021790555060646005553480156200012a57600080fd5b50600354600660003073ffffffffffffffffffffffffffffffffffffffff1673ffffffffffffffffffffffffffffffffffffffff1681526020019081526020016000208190555062000226565b828054600181600116156101000203166002900490600052602060002090601f016020900481019282601f10620001ba57805160ff1916838001178555620001eb565b82800160010185558215620001eb579182015b82811115620001ea578251825591602001919060010190620001cd565b5b509050620001fa9190620001fe565b5090565b6200022391905b808211156200021f57600081600090555060010162000205565b5090565b90565b611a5280620002366000396000f3fe6080604052600436106100f35760003560e01c80635a3b7e421161008a578063a9059cbb11610059578063a9059cbb1461068f578063d0febe4c14610702578063dd62ed3e1461070c578063f9f72f1514610791576100f3565b80635a3b7e421461041857806370a08231146104a8578063718f9b201461050d57806395d89b41146105ff576100f3565b80632397e4d7116100c65780632397e4d7146102ee57806323b872dd146103295780632c4e722e146103bc578063313ce567146103e7576100f3565b8063050320d2146100f857806306fdde03146101c0578063095ea7b31461025057806318160ddd146102c3575b600080fd5b34801561010457600080fd5b506101be6004803603602081101561011b57600080fd5b810190808035906020019064010000000081111561013857600080fd5b82018360208201111561014a57600080fd5b8035906020019184600183028401116401000000008311171561016c57600080fd5b91908080601f016020809104026020016040519081016040528093929190818152602001838380828437600081840152601f19601f8201169050808301925050505050505091929192905050506107f6565b005b3480156101cc57600080fd5b506101d5610c8e565b6040518080602001828103825283818151815260200191508051906020019080838360005b838110156102155780820151818401526020810190506101fa565b50505050905090810190601f1680156102425780820380516001836020036101000a031916815260200191505b509250505060405180910390f35b34801561025c57600080fd5b506102a96004803603604081101561027357600080fd5b81019080803573ffffffffffffffffffffffffffffffffffffffff16906020019092919080359060200190929190505050610d2c565b604051808215151515815260200191505060405180910390f35b3480156102cf57600080fd5b506102d8610e1e565b6040518082815260200191505060405180910390f35b3480156102fa57600080fd5b506103276004803603602081101561031157600080fd5b8101908080359060200190929190505050610e24565b005b34801561033557600080fd5b506103a26004803603606081101561034c57600080fd5b81019080803573ffffffffffffffffffffffffffffffffffffffff169060200190929190803573ffffffffffffffffffffffffffffffffffffffff1690602001909291908035906020019092919050505061102b565b604051808215151515815260200191505060405180910390f35b3480156103c857600080fd5b506103d1611276565b6040518082815260200191505060405180910390f35b3480156103f357600080fd5b506103fc61127c565b604051808260ff1660ff16815260200191505060405180910390f35b34801561042457600080fd5b5061042d61128f565b6040518080602001828103825283818151815260200191508051906020019080838360005b8381101561046d578082015181840152602081019050610452565b50505050905090810190601f16801561049a5780820380516001836020036101000a031916815260200191505b509250505060405180910390f35b3480156104b457600080fd5b506104f7600480360360208110156104cb57600080fd5b81019080803573ffffffffffffffffffffffffffffffffffffffff16906020019092919050505061132d565b6040518082815260200191505060405180910390f35b34801561051957600080fd5b506105fd6004803603606081101561053057600080fd5b81019080803590602001909291908035906020019064010000000081111561055757600080fd5b82018360208201111561056957600080fd5b8035906020019184600183028401116401000000008311171561058b57600080fd5b91908080601f016020809104026020016040519081016040528093929190818152602001838380828437600081840152601f19601f820116905080830192505050505050509192919290803573ffffffffffffffffffffffffffffffffffffffff169060200190929190505050611345565b005b34801561060b57600080fd5b50610614611625565b6040518080602001828103825283818151815260200191508051906020019080838360005b83811015610654578082015181840152602081019050610639565b50505050905090810190601f1680156106815780820380516001836020036101000a031916815260200191505b509250505060405180910390f35b34801561069b57600080fd5b506106e8600480360360408110156106b257600080fd5b81019080803573ffffffffffffffffffffffffffffffffffffffff169060200190929190803590602001909291905050506116c3565b604051808215151515815260200191505060405180910390f35b61070a611883565b005b34801561071857600080fd5b5061077b6004803603604081101561072f57600080fd5b81019080803573ffffffffffffffffffffffffffffffffffffffff169060200190929190803573ffffffffffffffffffffffffffffffffffffffff1690602001909291905050506119e0565b6040518082815260200191505060405180910390f35b34801561079d57600080fd5b506107e0600480360360208110156107b457600080fd5b81019080803573ffffffffffffffffffffffffffffffffffffffff169060200190929190505050611a05565b6040518082815260200191505060405180910390f35b6008816040518082805190602001908083835b6020831061082c5780518252602082019150602081019050602083039250610809565b6001836020036101000a038019825116818451168082178552505050505050905001915050908152602001604051809103902060000154600660003373ffffffffffffffffffffffffffffffffffffffff1673ffffffffffffffffffffffffffffffffffffffff168152602001908152602001600020541015610917576040517f08c379a00000000000000000000000000000000000000000000000000000000081526004018080602001828103825260148152602001807f496e73756666696369656e742062616c616e636500000000000000000000000081525060200191505060405180910390fd5b610ab36008826040518082805190602001908083835b60208310610950578051825260208201915060208101905060208303925061092d565b6001836020036101000a038019825116818451168082178552505050505050905001915050908152602001604051809103902060010160009054906101000a900473ffffffffffffffffffffffffffffffffffffffff166008836040518082805190602001908083835b602083106109dd57805182526020820191506020810190506020830392506109ba565b6001836020036101000a038019825116818451168082178552505050505050905001915050908152602001604051809103902060020160009054906101000a900473ffffffffffffffffffffffffffffffffffffffff16606460466008866040518082805190602001908083835b60208310610a6e5780518252602082019150602081019050602083039250610a4b565b6001836020036101000a0380198251168184511680821785525050505050509050019150509081526020016040518091039020600001540281610aad57fe5b0461102b565b50610bc4306008836040518082805190602001908083835b60208310610aee5780518252602082019150602081019050602083039250610acb565b6001836020036101000a038019825116818451168082178552505050505050905001915050908152602001604051809103902060020160009054906101000a900473ffffffffffffffffffffffffffffffffffffffff166064601e6008866040518082805190602001908083835b60208310610b7f5780518252602082019150602081019050602083039250610b5c565b6001836020036101000a0380198251168184511680821785525050505050509050019150509081526020016040518091039020600001540281610bbe57fe5b0461102b565b50606460466008836040518082805190602001908083835b60208310610bff5780518252602082019150602081019050602083039250610bdc565b6001836020036101000a0380198251168184511680821785525050505050509050019150509081526020016040518091039020600001540281610c3e57fe5b04600960003373ffffffffffffffffffffffffffffffffffffffff1673ffffffffffffffffffffffffffffffffffffffff1681526020019081526020016000206000828254039250508190555050565b60008054600181600116156101000203166002900480601f016020809104026020016040519081016040528092919081815260200182805460018160011615610100020316600290048015610d245780601f10610cf957610100808354040283529160200191610d24565b820191906000526020600020905b815481529060010190602001808311610d0757829003601f168201915b505050505081565b600081600760003373ffffffffffffffffffffffffffffffffffffffff1673ffffffffffffffffffffffffffffffffffffffff16815260200190815260200160002060008573ffffffffffffffffffffffffffffffffffffffff1673ffffffffffffffffffffffffffffffffffffffff168152602001908152602001600020819055508273ffffffffffffffffffffffffffffffffffffffff163373ffffffffffffffffffffffffffffffffffffffff167f8c5be1e5ebec7d5bd14f71427d1e84f3dd0314c0f7b2291e5b200ac8c7c3b925846040518082815260200191505060405180910390a36001905092915050565b60035481565b80600660003373ffffffffffffffffffffffffffffffffffffffff1673ffffffffffffffffffffffffffffffffffffffff168152602001908152602001600020541015610ed9576040517f08c379a00000000000000000000000000000000000000000000000000000000081526004018080602001828103825260148152602001807f496e73756666696369656e742062616c616e636500000000000000000000000081525060200191505060405180910390fd5b60006005548281610ee657fe5b04905080471015610f5f576040517f08c379a00000000000000000000000000000000000000000000000000000000081526004018080602001828103825260108152602001807f4e6f7420656e6f7567682065746865720000000000000000000000000000000081525060200191505060405180910390fd5b610f6a33308461102b565b503373ffffffffffffffffffffffffffffffffffffffff166108fc829081150290604051600060405180830381858888f19350505050158015610fb1573d6000803e3d6000fd5b507f2dcf9433d75db0d8b1c172641f85e319ffe4ad22e108a95d1847ceb906e5195d3383600554604051808473ffffffffffffffffffffffffffffffffffffffff1673ffffffffffffffffffffffffffffffffffffffff168152602001838152602001828152602001935050505060405180910390a15050565b6000600660008573ffffffffffffffffffffffffffffffffffffffff1673ffffffffffffffffffffffffffffffffffffffff168152602001908152602001600020548211156110e2576040517f08c379a00000000000000000000000000000000000000000000000000000000081526004018080602001828103825260128152602001807f4e6f7420656e6f7567682062616c616e6365000000000000000000000000000081525060200191505060405180910390fd5b81600660008673ffffffffffffffffffffffffffffffffffffffff1673ffffffffffffffffffffffffffffffffffffffff1681526020019081526020016000206000828254039250508190555081600660008573ffffffffffffffffffffffffffffffffffffffff1673ffffffffffffffffffffffffffffffffffffffff1681526020019081526020016000206000828254019250508190555081600760008673ffffffffffffffffffffffffffffffffffffffff1673ffffffffffffffffffffffffffffffffffffffff16815260200190815260200160002060003373ffffffffffffffffffffffffffffffffffffffff1673ffffffffffffffffffffffffffffffffffffffff168152602001908152602001600020600082825403925050819055508273ffffffffffffffffffffffffffffffffffffffff168473ffffffffffffffffffffffffffffffffffffffff167fddf252ad1be2c89b69c2b068fc378daa952ba7f163c4a11628f55a4df523b3ef846040518082815260200191505060405180910390a3600190509392505050565b60055481565b600460009054906101000a900460ff1681565b60028054600181600116156101000203166002900480601f0160208091040260200160405190810160405280929190818152602001828054600181600116156101000203166002900480156113255780601f106112fa57610100808354040283529160200191611325565b820191906000526020600020905b81548152906001019060200180831161130857829003601f168201915b505050505081565b60066020528060005260406000206000915090505481565b82600660003373ffffffffffffffffffffffffffffffffffffffff1673ffffffffffffffffffffffffffffffffffffffff1681526020019081526020016000205410156113fa576040517f08c379a00000000000000000000000000000000000000000000000000000000081526004018080602001828103825260198152602001807f496e73756666696369656e7420757365722062616c616e63650000000000000081525060200191505060405180910390fd5b60006064601e85028161140957fe5b0490506064604685028161141957fe5b04600960003373ffffffffffffffffffffffffffffffffffffffff1673ffffffffffffffffffffffffffffffffffffffff1681526020019081526020016000208190555060405180606001604052808581526020013373ffffffffffffffffffffffffffffffffffffffff1681526020018373ffffffffffffffffffffffffffffffffffffffff168152506008846040518082805190602001908083835b602083106114da57805182526020820191506020810190506020830392506114b7565b6001836020036101000a03801982511681845116808217855250505050505090500191505090815260200160405180910390206000820151816000015560208201518160010160006101000a81548173ffffffffffffffffffffffffffffffffffffffff021916908373ffffffffffffffffffffffffffffffffffffffff16021790555060408201518160020160006101000a81548173ffffffffffffffffffffffffffffffffffffffff021916908373ffffffffffffffffffffffffffffffffffffffff1602179055509050506115b333308361102b565b507f4a452db2ac76a6881a054b1dc7b8c4f054c4a7a9e38d9622ef2b8e69b113e2ac3382604051808373ffffffffffffffffffffffffffffffffffffffff1673ffffffffffffffffffffffffffffffffffffffff1681526020018281526020019250505060405180910390a150505050565b60018054600181600116156101000203166002900480601f0160208091040260200160405190810160405280929190818152602001828054600181600116156101000203166002900480156116bb5780601f10611690576101008083540402835291602001916116bb565b820191906000526020600020905b81548152906001019060200180831161169e57829003601f168201915b505050505081565b600081600660003373ffffffffffffffffffffffffffffffffffffffff1673ffffffffffffffffffffffffffffffffffffffff16815260200190815260200160002054101561177a576040517f08c379a00000000000000000000000000000000000000000000000000000000081526004018080602001828103825260128152602001807f4e6f7420656e6f7567682062616c616e6365000000000000000000000000000081525060200191505060405180910390fd5b81600660003373ffffffffffffffffffffffffffffffffffffffff1673ffffffffffffffffffffffffffffffffffffffff1681526020019081526020016000206000828254039250508190555081600660008573ffffffffffffffffffffffffffffffffffffffff1673ffffffffffffffffffffffffffffffffffffffff168152602001908152602001600020600082825401925050819055508273ffffffffffffffffffffffffffffffffffffffff163373ffffffffffffffffffffffffffffffffffffffff167fddf252ad1be2c89b69c2b068fc378daa952ba7f163c4a11628f55a4df523b3ef846040518082815260200191505060405180910390a36001905092915050565b6000600460009054906101000a900460ff1660ff166005543402816118a457fe5b04905080600660003073ffffffffffffffffffffffffffffffffffffffff1673ffffffffffffffffffffffffffffffffffffffff16815260200190815260200160002054101561195c576040517f08c379a00000000000000000000000000000000000000000000000000000000081526004018080602001828103825260148152602001807f496e73756666696369656e742062616c616e636500000000000000000000000081525060200191505060405180910390fd5b61196730338361102b565b507f8fafebcaf9d154343dad25669bfa277f4fbacd7ac6b0c4fed522580e040a0f333382600554604051808473ffffffffffffffffffffffffffffffffffffffff1673ffffffffffffffffffffffffffffffffffffffff168152602001838152602001828152602001935050505060405180910390a150565b6007602052816000526040600020602052806000526040600020600091509150505481565b6009602052806000526040600020600091509050548156fea265627a7a723158202624a6e9de934994be7fb8fc1639caa26ebc459c5033ff34063640dc8323280c64736f6c63430005100032",
  "source": "//// SPDX-License-Identifier: MIT\npragma solidity >=0.5.0 <0.7.0;\n\ncontract Main {\n    string  public name = \"BT Token\";\n    string  public symbol = \"BT\";\n    string  public standard = \"BT Token v1.0\";\n    uint256 public totalSupply = 1000000000000000000000000; //1 million tokens\n    uint8   public decimals = 18;\n    uint public rate = 100;\n\n    event Transfer(\n        address indexed _from,\n        address indexed _to,\n        uint256 _value\n    );\n\n    event Approval(\n        address indexed _owner,\n        address indexed _spender,\n        uint256 _value\n    );\n\n    event TokensPurchased(\n        address account,\n        uint amount,\n        uint rate\n    );\n\n\n    event TokensSold(\n        address account,\n        uint amount,\n        uint rate\n    );\n\n\n    event Transfer30(\n        address from,\n        uint amount\n    );\n    \n    mapping(address => uint256) public balanceOf;\n    mapping(address => mapping(address => uint256)) public allowance;\n    \n    struct pendings{\n        uint amount;\n        address sender;\n        address reciever;\n    }\n    \n    mapping(string => pendings) amountPending; \n    mapping(address => uint) public amountBlocked;\n    \n\n    constructor() public {\n        balanceOf[address(this)] = totalSupply;\n    }\n\n\n\n    //Function to transfer the BT-tokens from the msg.sender to _to \n    function transfer(address _to, uint256 _value) public returns (bool success) {\n        require(balanceOf[msg.sender] >= _value, \"Not enough balance\");\n        balanceOf[msg.sender] -= _value;\n        balanceOf[_to] += _value;\n        emit Transfer(msg.sender, _to, _value);\n        return true;\n    }\n\n    //Function to approve using of wallet\n    function approve(address _spender, uint256 _value) public returns (bool success) {\n        allowance[msg.sender][_spender] = _value;\n        emit Approval(msg.sender, _spender, _value);\n        return true;\n    }\n\n    //Function to transfer BT_Tokens from one address to another\n    function transferFrom(address _from, address _to, uint256 _value) public returns (bool success) {\n        require(_value <= balanceOf[_from], \"Not enough balance\");\n        //require(_value <= allowance[_from][msg.sender], \"Not enough allowance\");\n        //require(_value <= (balanceOf[_from]-amountBlocked[_from]), \"Amount has been blocked\");\n        balanceOf[_from] -= _value;\n        balanceOf[_to] += _value;\n        allowance[_from][msg.sender] -= _value;\n        emit Transfer(_from, _to, _value);\n        return true;\n    }\n\n\n    //Function to buy tokens from contract and in change of ether\n    function buyTokens() public payable {\n\n        uint tokenAmount = (msg.value * rate)/decimals;\n        require(balanceOf[address(this)] >= tokenAmount, \"Insufficient balance\");\n        //transfer(msg.sender, tokenAmount);\n        transferFrom(address(this), msg.sender, tokenAmount);\n\n        // Emit an event\n        emit TokensPurchased(msg.sender, tokenAmount, rate);\n    }\n\n\n    //Function to sell tokens to contract and get ether back\n    function sellToken(uint _amount) public {\n\n        require(balanceOf[msg.sender] >= _amount, \"Insufficient balance\");\n    \n        uint etherAmount = _amount / rate;\n\n        require(address(this).balance >= etherAmount,\"Not enough ether\");\n\n        transferFrom(msg.sender, address(this), _amount);\n\n        msg.sender.transfer(etherAmount);\n\n        //Event\n        emit TokensSold(msg.sender, _amount, rate);\n    \n    }\n    \n    \n    function transfer30(uint _amount, string memory _tId, address _reciever) public {\n    \n        require(balanceOf[msg.sender] >= _amount, \"Insufficient user balance\");\n    \n        uint transferAmount = (_amount * 30 ) / 100;\n        \n        amountBlocked[msg.sender] = (_amount * 70 ) / 100;\n\n        amountPending[_tId] = pendings({\n            amount: _amount,\n            sender: msg.sender,\n            reciever: _reciever\n        });\n    \n        transferFrom(msg.sender, address(this), transferAmount);\n\n        //Emit an event\n        emit Transfer30(msg.sender, transferAmount);\n    }\n    \n    \n    function transfer70(string memory _tradeId) public {\n        require(balanceOf[msg.sender] >= amountPending[_tradeId].amount, \"Insufficient balance\");\n\n        //transferring 70% from sender to reciever\n        transferFrom(amountPending[_tradeId].sender, amountPending[_tradeId].reciever, ((amountPending[_tradeId].amount * 70) / 100));\n        \n        //Transfer 30% from admin wallet\n        transferFrom(address(this), amountPending[_tradeId].reciever, ((amountPending[_tradeId].amount * 30) / 100));\n        \n        amountBlocked[msg.sender] -= (amountPending[_tradeId].amount * 70) / 100;\n    }\n    \n\n}\n\n\n\n",
  "sourcePath": "/home/ajinkya/Downloads/Manipal Hackathon/Main Folder/1225-Debug/BlockTradeCurator/src/contracts/Main.sol",
  "compiler": {
    "name": "solc",
    "version": "0.5.16+commit.9c3226ce.Emscripten.clang"
  },
  "schemaVersion": "3.2.0",
  "updatedAt": "2020-11-07T12:58:38.872Z",
  "networkType": "ethereum",
  "devdoc": {
    "methods": {}
  },
  "userdoc": {
    "methods": {}
  }
}