{
  "contractName": "Payment",
  "abi": [
    {
      "inputs": [
        {
          "internalType": "contract BT_Token",
          "name": "_token",
          "type": "address"
        }
      ],
      "payable": false,
      "stateMutability": "nonpayable",
      "type": "constructor"
    },
    {
      "anonymous": false,
      "inputs": [
        {
          "indexed": false,
          "internalType": "address",
          "name": "from",
          "type": "address"
        },
        {
          "indexed": false,
          "internalType": "uint256",
          "name": "amount",
          "type": "uint256"
        }
      ],
      "name": "Transfer30",
      "type": "event"
    },
    {
      "constant": true,
      "inputs": [
        {
          "internalType": "address",
          "name": "",
          "type": "address"
        }
      ],
      "name": "amountBlocked",
      "outputs": [
        {
          "internalType": "uint256",
          "name": "",
          "type": "uint256"
        }
      ],
      "payable": false,
      "stateMutability": "view",
      "type": "function"
    },
    {
      "constant": true,
      "inputs": [],
      "name": "name",
      "outputs": [
        {
          "internalType": "string",
          "name": "",
          "type": "string"
        }
      ],
      "payable": false,
      "stateMutability": "view",
      "type": "function"
    },
    {
      "constant": true,
      "inputs": [],
      "name": "rate",
      "outputs": [
        {
          "internalType": "uint256",
          "name": "",
          "type": "uint256"
        }
      ],
      "payable": false,
      "stateMutability": "view",
      "type": "function"
    },
    {
      "constant": true,
      "inputs": [],
      "name": "token",
      "outputs": [
        {
          "internalType": "contract BT_Token",
          "name": "",
          "type": "address"
        }
      ],
      "payable": false,
      "stateMutability": "view",
      "type": "function"
    },
    {
      "constant": false,
      "inputs": [
        {
          "internalType": "uint256",
          "name": "_amount",
          "type": "uint256"
        },
        {
          "internalType": "string",
          "name": "_tId",
          "type": "string"
        },
        {
          "internalType": "address",
          "name": "_reciever",
          "type": "address"
        }
      ],
      "name": "transfer30",
      "outputs": [],
      "payable": false,
      "stateMutability": "nonpayable",
      "type": "function"
    },
    {
      "constant": false,
      "inputs": [
        {
          "internalType": "string",
          "name": "_tradeId",
          "type": "string"
        }
      ],
      "name": "transfer70",
      "outputs": [],
      "payable": false,
      "stateMutability": "nonpayable",
      "type": "function"
    }
  ],
  "bytecode": "0x60806040526040518060400160405280600781526020017f5061796d656e74000000000000000000000000000000000000000000000000008152506000908051906020019061004f9291906100de565b50606460025534801561006157600080fd5b5060405162001101380380620011018339818101604052602081101561008657600080fd5b810190808051906020019092919050505080600160006101000a81548173ffffffffffffffffffffffffffffffffffffffff021916908373ffffffffffffffffffffffffffffffffffffffff16021790555050610183565b828054600181600116156101000203166002900490600052602060002090601f016020900481019282601f1061011f57805160ff191683800117855561014d565b8280016001018555821561014d579182015b8281111561014c578251825591602001919060010190610131565b5b50905061015a919061015e565b5090565b61018091905b8082111561017c576000816000905550600101610164565b5090565b90565b610f6e80620001936000396000f3fe608060405234801561001057600080fd5b50600436106100625760003560e01c8063050320d21461006757806306fdde03146101225780632c4e722e146101a5578063718f9b20146101c3578063f9f72f15146102a8578063fc0c546a14610300575b600080fd5b6101206004803603602081101561007d57600080fd5b810190808035906020019064010000000081111561009a57600080fd5b8201836020820111156100ac57600080fd5b803590602001918460018302840111640100000000831117156100ce57600080fd5b91908080601f016020809104026020016040519081016040528093929190818152602001838380828437600081840152601f19601f82011690508083019250505050505050919291929050505061034a565b005b61012a6109d0565b6040518080602001828103825283818151815260200191508051906020019080838360005b8381101561016a57808201518184015260208101905061014f565b50505050905090810190601f1680156101975780820380516001836020036101000a031916815260200191505b509250505060405180910390f35b6101ad610a6e565b6040518082815260200191505060405180910390f35b6102a6600480360360608110156101d957600080fd5b81019080803590602001909291908035906020019064010000000081111561020057600080fd5b82018360208201111561021257600080fd5b8035906020019184600183028401116401000000008311171561023457600080fd5b91908080601f016020809104026020016040519081016040528093929190818152602001838380828437600081840152601f19601f820116905080830192505050505050509192919290803573ffffffffffffffffffffffffffffffffffffffff169060200190929190505050610a74565b005b6102ea600480360360208110156102be57600080fd5b81019080803573ffffffffffffffffffffffffffffffffffffffff169060200190929190505050610efb565b6040518082815260200191505060405180910390f35b610308610f13565b604051808273ffffffffffffffffffffffffffffffffffffffff1673ffffffffffffffffffffffffffffffffffffffff16815260200191505060405180910390f35b6003816040518082805190602001908083835b60208310610380578051825260208201915060208101905060208303925061035d565b6001836020036101000a038019825116818451168082178552505050505050905001915050908152602001604051809103902060000154600160009054906101000a900473ffffffffffffffffffffffffffffffffffffffff1673ffffffffffffffffffffffffffffffffffffffff166370a08231336040518263ffffffff1660e01b8152600401808273ffffffffffffffffffffffffffffffffffffffff1673ffffffffffffffffffffffffffffffffffffffff16815260200191505060206040518083038186803b15801561045657600080fd5b505afa15801561046a573d6000803e3d6000fd5b505050506040513d602081101561048057600080fd5b81019080805190602001909291905050501015610505576040517f08c379a00000000000000000000000000000000000000000000000000000000081526004018080602001828103825260148152602001807f496e73756666696369656e742062616c616e636500000000000000000000000081525060200191505060405180910390fd5b600160009054906101000a900473ffffffffffffffffffffffffffffffffffffffff1673ffffffffffffffffffffffffffffffffffffffff166323b872dd6003836040518082805190602001908083835b602083106105795780518252602082019150602081019050602083039250610556565b6001836020036101000a038019825116818451168082178552505050505050905001915050908152602001604051809103902060010160009054906101000a900473ffffffffffffffffffffffffffffffffffffffff166003846040518082805190602001908083835b6020831061060657805182526020820191506020810190506020830392506105e3565b6001836020036101000a038019825116818451168082178552505050505050905001915050908152602001604051809103902060020160009054906101000a900473ffffffffffffffffffffffffffffffffffffffff16606460466003876040518082805190602001908083835b602083106106975780518252602082019150602081019050602083039250610674565b6001836020036101000a03801982511681845116808217855250505050505090500191505090815260200160405180910390206000015402816106d657fe5b046040518463ffffffff1660e01b8152600401808473ffffffffffffffffffffffffffffffffffffffff1673ffffffffffffffffffffffffffffffffffffffff1681526020018373ffffffffffffffffffffffffffffffffffffffff1673ffffffffffffffffffffffffffffffffffffffff1681526020018281526020019350505050602060405180830381600087803b15801561077357600080fd5b505af1158015610787573d6000803e3d6000fd5b505050506040513d602081101561079d57600080fd5b810190808051906020019092919050505050600160009054906101000a900473ffffffffffffffffffffffffffffffffffffffff1673ffffffffffffffffffffffffffffffffffffffff166323b872dd336003846040518082805190602001908083835b602083106108245780518252602082019150602081019050602083039250610801565b6001836020036101000a038019825116818451168082178552505050505050905001915050908152602001604051809103902060020160009054906101000a900473ffffffffffffffffffffffffffffffffffffffff16606460466003876040518082805190602001908083835b602083106108b55780518252602082019150602081019050602083039250610892565b6001836020036101000a03801982511681845116808217855250505050505090500191505090815260200160405180910390206000015402816108f457fe5b046040518463ffffffff1660e01b8152600401808473ffffffffffffffffffffffffffffffffffffffff1673ffffffffffffffffffffffffffffffffffffffff1681526020018373ffffffffffffffffffffffffffffffffffffffff1673ffffffffffffffffffffffffffffffffffffffff1681526020018281526020019350505050602060405180830381600087803b15801561099157600080fd5b505af11580156109a5573d6000803e3d6000fd5b505050506040513d60208110156109bb57600080fd5b81019080805190602001909291905050505050565b60008054600181600116156101000203166002900480601f016020809104026020016040519081016040528092919081815260200182805460018160011615610100020316600290048015610a665780601f10610a3b57610100808354040283529160200191610a66565b820191906000526020600020905b815481529060010190602001808311610a4957829003601f168201915b505050505081565b60025481565b82600160009054906101000a900473ffffffffffffffffffffffffffffffffffffffff1673ffffffffffffffffffffffffffffffffffffffff166370a08231336040518263ffffffff1660e01b8152600401808273ffffffffffffffffffffffffffffffffffffffff1673ffffffffffffffffffffffffffffffffffffffff16815260200191505060206040518083038186803b158015610b1457600080fd5b505afa158015610b28573d6000803e3d6000fd5b505050506040513d6020811015610b3e57600080fd5b81019080805190602001909291905050501015610bc3576040517f08c379a00000000000000000000000000000000000000000000000000000000081526004018080602001828103825260198152602001807f496e73756666696369656e7420757365722062616c616e63650000000000000081525060200191505060405180910390fd5b60006064601e850281610bd257fe5b04905060646046850281610be257fe5b04600460003373ffffffffffffffffffffffffffffffffffffffff1673ffffffffffffffffffffffffffffffffffffffff1681526020019081526020016000208190555060405180606001604052808581526020013373ffffffffffffffffffffffffffffffffffffffff1681526020018373ffffffffffffffffffffffffffffffffffffffff168152506003846040518082805190602001908083835b60208310610ca35780518252602082019150602081019050602083039250610c80565b6001836020036101000a03801982511681845116808217855250505050505090500191505090815260200160405180910390206000820151816000015560208201518160010160006101000a81548173ffffffffffffffffffffffffffffffffffffffff021916908373ffffffffffffffffffffffffffffffffffffffff16021790555060408201518160020160006101000a81548173ffffffffffffffffffffffffffffffffffffffff021916908373ffffffffffffffffffffffffffffffffffffffff160217905550905050600160009054906101000a900473ffffffffffffffffffffffffffffffffffffffff1673ffffffffffffffffffffffffffffffffffffffff166323b872dd3330846040518463ffffffff1660e01b8152600401808473ffffffffffffffffffffffffffffffffffffffff1673ffffffffffffffffffffffffffffffffffffffff1681526020018373ffffffffffffffffffffffffffffffffffffffff1673ffffffffffffffffffffffffffffffffffffffff1681526020018281526020019350505050602060405180830381600087803b158015610e4e57600080fd5b505af1158015610e62573d6000803e3d6000fd5b505050506040513d6020811015610e7857600080fd5b8101908080519060200190929190505050507f4a452db2ac76a6881a054b1dc7b8c4f054c4a7a9e38d9622ef2b8e69b113e2ac3382604051808373ffffffffffffffffffffffffffffffffffffffff1673ffffffffffffffffffffffffffffffffffffffff1681526020018281526020019250505060405180910390a150505050565b60046020528060005260406000206000915090505481565b600160009054906101000a900473ffffffffffffffffffffffffffffffffffffffff168156fea265627a7a723158207dbfed25867f921ee07363e8a26adbdc82522f54c7555b11867ebbecd8881c6564736f6c63430005100032",
  "source": "//// SPDX-License-Identifier: MIT\npragma solidity >=0.5.0 <0.7.0;\n\nimport \"./BT_Token.sol\";\n\ncontract Payment {\n    string public name = \"Payment\";\n    BT_Token public token;\n    uint public rate = 100;   \n\n    /*struct pending{\n        uint amountrem;\n        uint amountpaid;\n        string tradeId;\n        bool isPaid;\n    }\n\n    mapping(address => pending) public amountPending;*/\n\n    struct pendings{\n        uint amount;\n        address sender;\n        address reciever;\n    }\n\n    //string means the tradeId\n    mapping(string => pendings) amountPending; \n\n    mapping(address => uint) public amountBlocked; \n\n    event Transfer30(\n        address from,\n        uint amount\n    ); \n\n    constructor(BT_Token _token) public {\n        token = _token;\n    }    \n\n    function transfer30(uint _amount, string memory _tId, address _reciever) public {\n        //User can't sell more tokens than they have\n        require(token.balanceOf(msg.sender) >= _amount, \"Insufficient user balance\");\n\n        //Calculate the amount of Ether to redeem\n        uint transferAmount = (_amount * 30 ) / 100;\n        \n        amountBlocked[msg.sender] = (_amount * 70 ) / 100;\n\n        amountPending[_tId] = pendings({\n            amount: _amount,\n            sender: msg.sender,\n            reciever: _reciever\n        });\n        //Perform sale\n        token.transferFrom(msg.sender, address(this), transferAmount);\n        //This function transfers the etherAmount to the msg.sender\n        //msg.sender.transfer(etherAmount);\n\n        //Emit an event\n        emit Transfer30(msg.sender, transferAmount);\n    }\n\n    function transfer70(string memory _tradeId) public {\n        require(token.balanceOf(msg.sender) >= amountPending[_tradeId].amount, \"Insufficient balance\");\n\n        //transferring 70% from sender to reciever\n        token.transferFrom(amountPending[_tradeId].sender, amountPending[_tradeId].reciever, ((amountPending[_tradeId].amount * 70) / 100));\n        \n        //Transfer 30% from admin wallet\n        token.transferFrom(msg.sender, amountPending[_tradeId].reciever, ((amountPending[_tradeId].amount * 70) / 100));\n    }\n}\n",
  "sourcePath": "/home/ajinkya/Documents/Dapps/BlockTrade-UserApp/src/contracts/Payment.sol",
  "compiler": {
    "name": "solc",
    "version": "0.5.16+commit.9c3226ce.Emscripten.clang"
  },
  "schemaVersion": "3.2.0",
  "updatedAt": "2020-11-06T10:02:57.963Z",
  "networkType": "ethereum",
  "devdoc": {
    "methods": {}
  },
  "userdoc": {
    "methods": {}
  }
}