{
  "contractName": "TradeApprovals",
  "abi": [
    {
      "inputs": [
        {
          "internalType": "address[]",
          "name": "curatorsList",
          "type": "address[]"
        }
      ],
      "payable": false,
      "stateMutability": "nonpayable",
      "type": "constructor"
    },
    {
      "constant": true,
      "inputs": [
        {
          "internalType": "string",
          "name": "",
          "type": "string"
        },
        {
          "internalType": "uint256",
          "name": "",
          "type": "uint256"
        }
      ],
      "name": "approval",
      "outputs": [
        {
          "internalType": "address",
          "name": "addr",
          "type": "address"
        },
        {
          "internalType": "int256",
          "name": "validated",
          "type": "int256"
        }
      ],
      "payable": false,
      "stateMutability": "view",
      "type": "function"
    },
    {
      "constant": true,
      "inputs": [],
      "name": "count",
      "outputs": [
        {
          "internalType": "uint256",
          "name": "",
          "type": "uint256"
        }
      ],
      "payable": false,
      "stateMutability": "view",
      "type": "function"
    },
    {
      "constant": true,
      "inputs": [
        {
          "internalType": "uint256",
          "name": "",
          "type": "uint256"
        }
      ],
      "name": "curators",
      "outputs": [
        {
          "internalType": "address",
          "name": "addr",
          "type": "address"
        },
        {
          "internalType": "int256",
          "name": "validated",
          "type": "int256"
        }
      ],
      "payable": false,
      "stateMutability": "view",
      "type": "function"
    },
    {
      "constant": false,
      "inputs": [
        {
          "internalType": "string",
          "name": "_id",
          "type": "string"
        }
      ],
      "name": "setApprovals",
      "outputs": [],
      "payable": false,
      "stateMutability": "nonpayable",
      "type": "function"
    },
    {
      "constant": false,
      "inputs": [
        {
          "internalType": "string",
          "name": "_id",
          "type": "string"
        }
      ],
      "name": "approve",
      "outputs": [],
      "payable": true,
      "stateMutability": "payable",
      "type": "function"
    },
    {
      "constant": false,
      "inputs": [
        {
          "internalType": "string",
          "name": "_id",
          "type": "string"
        }
      ],
      "name": "reject",
      "outputs": [],
      "payable": true,
      "stateMutability": "payable",
      "type": "function"
    },
    {
      "constant": true,
      "inputs": [
        {
          "internalType": "string",
          "name": "_id",
          "type": "string"
        }
      ],
      "name": "allApproved",
      "outputs": [
        {
          "internalType": "bool",
          "name": "res",
          "type": "bool"
        }
      ],
      "payable": false,
      "stateMutability": "view",
      "type": "function"
    }
  ],
  "bytecode": "0x608060405234801561001057600080fd5b5060405161100d38038061100d8339818101604052602081101561003357600080fd5b810190808051604051939291908464010000000082111561005357600080fd5b8382019150602082018581111561006957600080fd5b825186602082028301116401000000008211171561008657600080fd5b8083526020830192505050908051906020019060200280838360005b838110156100bd5780820151818401526020810190506100a2565b5050505090500160405250505060008090505b81518110156101d8576100e16101df565b8282815181106100ed57fe5b6020026020010151816000019073ffffffffffffffffffffffffffffffffffffffff16908173ffffffffffffffffffffffffffffffffffffffff168152505060008160200181815250506001819080600181540180825580915050906001820390600052602060002090600202016000909192909190915060008201518160000160006101000a81548173ffffffffffffffffffffffffffffffffffffffff021916908373ffffffffffffffffffffffffffffffffffffffff1602179055506020820151816001015550505060008081548092919060010191905055505080806001019150506100d0565b505061020f565b6040518060400160405280600073ffffffffffffffffffffffffffffffffffffffff168152602001600081525090565b610def8061021e6000396000f3fe6080604052600436106100705760003560e01c8063ac2ca40f1161004e578063ac2ca40f14610223578063b67b716314610303578063dff43434146103be578063eb4b1bc81461044057610070565b806306661abd1461007557806309e1d399146100a0578063201c5cc114610168575b600080fd5b34801561008157600080fd5b5061008a610559565b6040518082815260200191505060405180910390f35b3480156100ac57600080fd5b50610166600480360360208110156100c357600080fd5b81019080803590602001906401000000008111156100e057600080fd5b8201836020820111156100f257600080fd5b8035906020019184600183028401116401000000008311171561011457600080fd5b91908080601f016020809104026020016040519081016040528093929190818152602001838380828437600081840152601f19601f82011690508083019250505050505050919291929050505061055f565b005b6102216004803603602081101561017e57600080fd5b810190808035906020019064010000000081111561019b57600080fd5b8201836020820111156101ad57600080fd5b803590602001918460018302840111640100000000831117156101cf57600080fd5b91908080601f016020809104026020016040519081016040528093929190818152602001838380828437600081840152601f19601f82011690508083019250505050505050919291929050505061076c565b005b34801561022f57600080fd5b506102e96004803603602081101561024657600080fd5b810190808035906020019064010000000081111561026357600080fd5b82018360208201111561027557600080fd5b8035906020019184600183028401116401000000008311171561029757600080fd5b91908080601f016020809104026020016040519081016040528093929190818152602001838380828437600081840152601f19601f8201169050808301925050505050505091929192905050506108fe565b604051808215151515815260200191505060405180910390f35b6103bc6004803603602081101561031957600080fd5b810190808035906020019064010000000081111561033657600080fd5b82018360208201111561034857600080fd5b8035906020019184600183028401116401000000008311171561036a57600080fd5b91908080601f016020809104026020016040519081016040528093929190818152602001838380828437600081840152601f19601f8201169050808301925050505050505091929192905050506109ec565b005b3480156103ca57600080fd5b506103f7600480360360208110156103e157600080fd5b8101908080359060200190929190505050610b7e565b604051808373ffffffffffffffffffffffffffffffffffffffff1673ffffffffffffffffffffffffffffffffffffffff1681526020018281526020019250505060405180910390f35b34801561044c57600080fd5b506105106004803603604081101561046357600080fd5b810190808035906020019064010000000081111561048057600080fd5b82018360208201111561049257600080fd5b803590602001918460018302840111640100000000831117156104b457600080fd5b91908080601f016020809104026020016040519081016040528093929190818152602001838380828437600081840152601f19601f82011690508083019250505050505050919291929080359060200190929190505050610bcf565b604051808373ffffffffffffffffffffffffffffffffffffffff1673ffffffffffffffffffffffffffffffffffffffff1681526020018281526020019250505060405180910390f35b60005481565b600060018054905090506060816040519080825280602002602001820160405280156105a557816020015b610592610c43565b81526020019060019003908161058a5790505b50905060008090505b6001805490508110156106ec576105c3610c73565b600182815481106105d057fe5b906000526020600020906002020160000160009054906101000a900473ffffffffffffffffffffffffffffffffffffffff16816000019073ffffffffffffffffffffffffffffffffffffffff16908173ffffffffffffffffffffffffffffffffffffffff168152505060008160200181815250508083838151811061065157fe5b60200260200101819052506002819080600181540180825580915050906001820390600052602060002090600202016000909192909190915060008201518160000160006101000a81548173ffffffffffffffffffffffffffffffffffffffff021916908373ffffffffffffffffffffffffffffffffffffffff160217905550602082015181600101555050505080806001019150506105ae565b5060026003846040518082805190602001908083835b602083106107255780518252602082019150602081019050602083039250610702565b6001836020036101000a0380198251168184511680821785525050505050509050019150509081526020016040518091039020908054610766929190610ca3565b50505050565b600080905060008090505b60018054905081101561086e573373ffffffffffffffffffffffffffffffffffffffff166003846040518082805190602001908083835b602083106107d157805182526020820191506020810190506020830392506107ae565b6001836020036101000a0380198251168184511680821785525050505050509050019150509081526020016040518091039020828154811061080f57fe5b906000526020600020906002020160000160009054906101000a900473ffffffffffffffffffffffffffffffffffffffff1673ffffffffffffffffffffffffffffffffffffffff161415610861578091505b8080600101915050610777565b5060026003836040518082805190602001908083835b602083106108a75780518252602082019150602081019050602083039250610884565b6001836020036101000a038019825116818451168082178552505050505050905001915050908152602001604051809103902082815481106108e557fe5b9060005260206000209060020201600101819055505050565b6000806000905060008090505b6001805490508110156109bc5760016003856040518082805190602001908083835b60208310610950578051825260208201915060208101905060208303925061092d565b6001836020036101000a0380198251168184511680821785525050505050509050019150509081526020016040518091039020828154811061098e57fe5b90600052602060002090600202016001015414156109af5781806001019250505b808060010191505061090b565b50600a600180549050600502816109cf57fe5b048111156109e15760019150506109e7565b60009150505b919050565b600080905060008090505b600180549050811015610aee573373ffffffffffffffffffffffffffffffffffffffff166003846040518082805190602001908083835b60208310610a515780518252602082019150602081019050602083039250610a2e565b6001836020036101000a03801982511681845116808217855250505050505090500191505090815260200160405180910390208281548110610a8f57fe5b906000526020600020906002020160000160009054906101000a900473ffffffffffffffffffffffffffffffffffffffff1673ffffffffffffffffffffffffffffffffffffffff161415610ae1578091505b80806001019150506109f7565b5060016003836040518082805190602001908083835b60208310610b275780518252602082019150602081019050602083039250610b04565b6001836020036101000a03801982511681845116808217855250505050505090500191505090815260200160405180910390208281548110610b6557fe5b9060005260206000209060020201600101819055505050565b60018181548110610b8b57fe5b90600052602060002090600202016000915090508060000160009054906101000a900473ffffffffffffffffffffffffffffffffffffffff16908060010154905082565b6003828051602081018201805184825260208301602085012081835280955050505050508181548110610bfe57fe5b9060005260206000209060020201600091509150508060000160009054906101000a900473ffffffffffffffffffffffffffffffffffffffff16908060010154905082565b6040518060400160405280600073ffffffffffffffffffffffffffffffffffffffff168152602001600081525090565b6040518060400160405280600073ffffffffffffffffffffffffffffffffffffffff168152602001600081525090565b828054828255906000526020600020906002028101928215610d5b5760005260206000209160020282015b82811115610d5a5782826000820160009054906101000a900473ffffffffffffffffffffffffffffffffffffffff168160000160006101000a81548173ffffffffffffffffffffffffffffffffffffffff021916908373ffffffffffffffffffffffffffffffffffffffff16021790555060018201548160010155505091600201919060020190610cce565b5b509050610d689190610d6c565b5090565b610db791905b80821115610db357600080820160006101000a81549073ffffffffffffffffffffffffffffffffffffffff0219169055600182016000905550600201610d72565b5090565b9056fea265627a7a72315820dd013f827e504fe5087e9d988e84f23be77ddb88d042ae35bba642668dd2f87064736f6c63430005100032",
  "source": "//// SPDX-License-Identifier: MIT\npragma solidity >=0.5.0 <0.7.0;\n\n\ncontract TradeApprovals {\n    uint256 public count;\n\n    struct Curator {\n        address addr;\n        int256 validated;\n    }\n\n    Curator[] public curators;\n    Curator[] tempC;\n\n    mapping(string => Curator[]) public approval;\n\n    constructor(address[] memory curatorsList) public {\n        for (uint256 i = 0; i < curatorsList.length; i++) {\n            Curator memory t;\n            t.addr = curatorsList[i];\n            t.validated = 0;\n            curators.push(t);\n            count ++;\n        }\n    }\n\n    function setApprovals(string memory _id) public {\n        uint256 cnt = curators.length;\n        Curator[] memory c = new Curator[](cnt);\n\n        for (uint256 i = 0; i < curators.length; i++) {\n            Curator memory t;\n            t.addr = curators[i].addr;\n            t.validated = 0;\n            c[i] = t;\n            tempC.push(t);\n        }\n\n        approval[_id] = tempC;\n    }\n    \n    function approve(string memory _id) public payable {\n        uint x = 0;\n        for(uint i=0; i<curators.length; i++){\n            if(approval[_id][i].addr == msg.sender){\n                x = i;\n            }\n        }\n        \n        approval[_id][x].validated = 1;\n    }\n    \n    function reject(string memory _id) public payable {\n        uint x = 0;\n        for(uint i=0; i<curators.length; i++){\n            if(approval[_id][i].addr == msg.sender){\n                x = i;\n            }\n        }\n        \n        approval[_id][x].validated = 2;\n    }\n    \n    function allApproved(string memory _id) public view returns(bool res){\n        uint counter = 0;\n        \n        for(uint i=0; i<curators.length; i++){\n            if(approval[_id][i].validated == 1){\n                counter ++;\n            }\n        }\n        \n        if(counter > (5*curators.length)/10){\n            return true;\n        }else{\n            return false;\n        }\n        \n    }\n    \n}\n",
  "sourcePath": "/home/ajinkya/Documents/Dapps/BlockTrade-UserApp/src/contracts/TradeApprovals.sol",
  "compiler": {
    "name": "solc",
    "version": "0.5.16+commit.9c3226ce.Emscripten.clang"
  },
  "schemaVersion": "3.2.0",
  "updatedAt": "2020-10-28T17:23:14.223Z",
  "devdoc": {
    "methods": {}
  },
  "userdoc": {
    "methods": {}
  }
}