{
  "contractName": "Trades",
  "abi": [
    {
      "constant": true,
      "inputs": [
        {
          "internalType": "uint256",
          "name": "",
          "type": "uint256"
        }
      ],
      "name": "tradeId",
      "outputs": [
        {
          "internalType": "string",
          "name": "",
          "type": "string"
        }
      ],
      "payable": false,
      "stateMutability": "view",
      "type": "function"
    },
    {
      "constant": false,
      "inputs": [
        {
          "internalType": "string",
          "name": "_id",
          "type": "string"
        },
        {
          "internalType": "string",
          "name": "_tHash",
          "type": "string"
        }
      ],
      "name": "setTrade",
      "outputs": [],
      "payable": false,
      "stateMutability": "nonpayable",
      "type": "function"
    },
    {
      "constant": true,
      "inputs": [
        {
          "internalType": "string",
          "name": "_id",
          "type": "string"
        }
      ],
      "name": "getTrade",
      "outputs": [
        {
          "internalType": "string",
          "name": "_name",
          "type": "string"
        }
      ],
      "payable": false,
      "stateMutability": "view",
      "type": "function"
    }
  ],
  "bytecode": "0x608060405234801561001057600080fd5b5061081d806100206000396000f3fe608060405234801561001057600080fd5b50600436106100415760003560e01c806365f53d62146100465780639fa637a814610198578063d64612a3146102cc575b600080fd5b6101966004803603604081101561005c57600080fd5b810190808035906020019064010000000081111561007957600080fd5b82018360208201111561008b57600080fd5b803590602001918460018302840111640100000000831117156100ad57600080fd5b91908080601f016020809104026020016040519081016040528093929190818152602001838380828437600081840152601f19601f8201169050808301925050505050505091929192908035906020019064010000000081111561011057600080fd5b82018360208201111561012257600080fd5b8035906020019184600183028401116401000000008311171561014457600080fd5b91908080601f016020809104026020016040519081016040528093929190818152602001838380828437600081840152601f19601f820116905080830192505050505050509192919290505050610373565b005b610251600480360360208110156101ae57600080fd5b81019080803590602001906401000000008111156101cb57600080fd5b8201836020820111156101dd57600080fd5b803590602001918460018302840111640100000000831117156101ff57600080fd5b91908080601f016020809104026020016040519081016040528093929190818152602001838380828437600081840152601f19601f8201169050808301925050505050505091929192905050506104fc565b6040518080602001828103825283818151815260200191508051906020019080838360005b83811015610291578082015181840152602081019050610276565b50505050905090810190601f1680156102be5780820380516001836020036101000a031916815260200191505b509250505060405180910390f35b6102f8600480360360208110156102e257600080fd5b810190808035906020019092919050505061060a565b6040518080602001828103825283818151815260200191508051906020019080838360005b8381101561033857808201518184015260208101905061031d565b50505050905090810190601f1680156103655780820380516001836020036101000a031916815260200191505b509250505060405180910390f35b60008290806001815401808255809150509060018203906000526020600020016000909192909190915090805190602001906103b09291906106c3565b50506002604051806040016040528083815260200160001515815250908060018154018082558091505090600182039060005260206000209060020201600090919290919091506000820151816000019080519060200190610413929190610743565b5060208201518160010160006101000a81548160ff0219169083151502179055505050506040518060400160405280828152602001600015158152506003836040518082805190602001908083835b602083106104855780518252602082019150602081019050602083039250610462565b6001836020036101000a038019825116818451168082178552505050505050905001915050908152602001604051809103902060008201518160000190805190602001906104d4929190610743565b5060208201518160010160006101000a81548160ff0219169083151502179055509050505050565b60606003826040518082805190602001908083835b602083106105345780518252602082019150602081019050602083039250610511565b6001836020036101000a03801982511681845116808217855250505050505090500191505090815260200160405180910390206000018054600181600116156101000203166002900480601f0160208091040260200160405190810160405280929190818152602001828054600181600116156101000203166002900480156105fe5780601f106105d3576101008083540402835291602001916105fe565b820191906000526020600020905b8154815290600101906020018083116105e157829003601f168201915b50505050509050919050565b6000818154811061061757fe5b906000526020600020016000915090508054600181600116156101000203166002900480601f0160208091040260200160405190810160405280929190818152602001828054600181600116156101000203166002900480156106bb5780601f10610690576101008083540402835291602001916106bb565b820191906000526020600020905b81548152906001019060200180831161069e57829003601f168201915b505050505081565b828054600181600116156101000203166002900490600052602060002090601f016020900481019282601f1061070457805160ff1916838001178555610732565b82800160010185558215610732579182015b82811115610731578251825591602001919060010190610716565b5b50905061073f91906107c3565b5090565b828054600181600116156101000203166002900490600052602060002090601f016020900481019282601f1061078457805160ff19168380011785556107b2565b828001600101855582156107b2579182015b828111156107b1578251825591602001919060010190610796565b5b5090506107bf91906107c3565b5090565b6107e591905b808211156107e15760008160009055506001016107c9565b5090565b9056fea265627a7a72315820327c4f1eca2badb4bf539433a1547abf0b72a395a95fe8c95f50db3b80e5579264736f6c63430005100032",
  "source": "//// SPDX-License-Identifier: MIT\npragma solidity >=0.5.0 <0.7.0;\n\n\ncontract Trades {\n\n    string[] public tradeId;\n    uint count;\n\n    struct Deal {\n        string tradeHash;\n        bool isConfirmed;    \n    }\n\n    Deal[] deals;\n\n    mapping(string => Deal) tradeList;\n\n    function setTrade(string memory _id, string memory _tHash) public {\n        \n        tradeId.push(_id);\n        \n        deals.push(Deal({\n            tradeHash: _tHash,\n            isConfirmed: false\n        }));\n        \n        tradeList[_id] = Deal({\n            tradeHash: _tHash,\n            isConfirmed: false\n        });\n    }   \n\n    function getTrade(string memory _id) public view returns(string memory _name){ \n        \n        return (tradeList[_id].tradeHash);\n    } \n\n}",
  "sourcePath": "/home/ajinkya/Documents/Dapps/BlockTrade-UserApp/src/contracts/Trades.sol",
  "compiler": {
    "name": "solc",
    "version": "0.5.16+commit.9c3226ce.Emscripten.clang"
  },
  "schemaVersion": "3.2.0",
  "updatedAt": "2020-10-20T20:05:23.860Z",
  "networkType": "ethereum",
  "devdoc": {
    "methods": {}
  },
  "userdoc": {
    "methods": {}
  }
}