{
  "contractName": "Trades",
  "abi": [
    {
      "inputs": [
        {
          "internalType": "address[]",
          "name": "curatorsList",
          "type": "address[]"
        }
      ],
      "payable": false,
      "stateMutability": "nonpayable",
      "type": "constructor"
    },
    {
      "constant": true,
      "inputs": [
        {
          "internalType": "string",
          "name": "",
          "type": "string"
        },
        {
          "internalType": "uint256",
          "name": "",
          "type": "uint256"
        }
      ],
      "name": "approval",
      "outputs": [
        {
          "internalType": "address",
          "name": "addr",
          "type": "address"
        },
        {
          "internalType": "int256",
          "name": "validated",
          "type": "int256"
        }
      ],
      "payable": false,
      "stateMutability": "view",
      "type": "function"
    },
    {
      "constant": true,
      "inputs": [],
      "name": "count",
      "outputs": [
        {
          "internalType": "uint256",
          "name": "",
          "type": "uint256"
        }
      ],
      "payable": false,
      "stateMutability": "view",
      "type": "function"
    },
    {
      "constant": true,
      "inputs": [
        {
          "internalType": "uint256",
          "name": "",
          "type": "uint256"
        }
      ],
      "name": "curators",
      "outputs": [
        {
          "internalType": "address",
          "name": "addr",
          "type": "address"
        },
        {
          "internalType": "int256",
          "name": "validated",
          "type": "int256"
        }
      ],
      "payable": false,
      "stateMutability": "view",
      "type": "function"
    },
    {
      "constant": true,
      "inputs": [],
      "name": "tradeCount",
      "outputs": [
        {
          "internalType": "uint256",
          "name": "",
          "type": "uint256"
        }
      ],
      "payable": false,
      "stateMutability": "view",
      "type": "function"
    },
    {
      "constant": true,
      "inputs": [
        {
          "internalType": "uint256",
          "name": "",
          "type": "uint256"
        }
      ],
      "name": "tradeId",
      "outputs": [
        {
          "internalType": "string",
          "name": "",
          "type": "string"
        }
      ],
      "payable": false,
      "stateMutability": "view",
      "type": "function"
    },
    {
      "constant": false,
      "inputs": [
        {
          "internalType": "string",
          "name": "_id",
          "type": "string"
        }
      ],
      "name": "setApprovals",
      "outputs": [],
      "payable": false,
      "stateMutability": "nonpayable",
      "type": "function"
    },
    {
      "constant": false,
      "inputs": [
        {
          "internalType": "string",
          "name": "_id",
          "type": "string"
        }
      ],
      "name": "approve",
      "outputs": [],
      "payable": false,
      "stateMutability": "nonpayable",
      "type": "function"
    },
    {
      "constant": false,
      "inputs": [
        {
          "internalType": "string",
          "name": "_id",
          "type": "string"
        }
      ],
      "name": "reject",
      "outputs": [],
      "payable": false,
      "stateMutability": "nonpayable",
      "type": "function"
    },
    {
      "constant": true,
      "inputs": [
        {
          "internalType": "string",
          "name": "_id",
          "type": "string"
        }
      ],
      "name": "allApproved",
      "outputs": [
        {
          "internalType": "bool",
          "name": "res",
          "type": "bool"
        }
      ],
      "payable": false,
      "stateMutability": "view",
      "type": "function"
    },
    {
      "constant": true,
      "inputs": [
        {
          "internalType": "string",
          "name": "_id",
          "type": "string"
        },
        {
          "internalType": "uint256",
          "name": "n",
          "type": "uint256"
        }
      ],
      "name": "getStatus",
      "outputs": [
        {
          "internalType": "int256",
          "name": "stat",
          "type": "int256"
        }
      ],
      "payable": false,
      "stateMutability": "view",
      "type": "function"
    },
    {
      "constant": false,
      "inputs": [
        {
          "internalType": "string",
          "name": "_id",
          "type": "string"
        },
        {
          "internalType": "string",
          "name": "_tHash",
          "type": "string"
        }
      ],
      "name": "setTrade",
      "outputs": [],
      "payable": false,
      "stateMutability": "nonpayable",
      "type": "function"
    },
    {
      "constant": true,
      "inputs": [
        {
          "internalType": "string",
          "name": "_id",
          "type": "string"
        }
      ],
      "name": "getTrade",
      "outputs": [
        {
          "internalType": "string",
          "name": "_name",
          "type": "string"
        }
      ],
      "payable": false,
      "stateMutability": "view",
      "type": "function"
    }
  ],
  "bytecode": "0x60806040523480156200001157600080fd5b506040516200181f3803806200181f833981810160405260208110156200003757600080fd5b81019080805160405193929190846401000000008211156200005857600080fd5b838201915060208201858111156200006f57600080fd5b82518660208202830111640100000000821117156200008d57600080fd5b8083526020830192505050908051906020019060200280838360005b83811015620000c6578082015181840152602081019050620000a9565b5050505090500160405250505060008090505b8151811015620001e657620000ed620001ee565b828281518110620000fa57fe5b6020026020010151816000019073ffffffffffffffffffffffffffffffffffffffff16908173ffffffffffffffffffffffffffffffffffffffff168152505060008160200181815250506004819080600181540180825580915050906001820390600052602060002090600202016000909192909190915060008201518160000160006101000a81548173ffffffffffffffffffffffffffffffffffffffff021916908373ffffffffffffffffffffffffffffffffffffffff160217905550602082015181600101555050506000808154809291906001019190505550508080600101915050620000d9565b50506200021e565b6040518060400160405280600073ffffffffffffffffffffffffffffffffffffffff168152602001600081525090565b6115f1806200022e6000396000f3fe608060405234801561001057600080fd5b50600436106100b45760003560e01c8063ac2ca40f11610071578063ac2ca40f146105ac578063b67b71631461067f578063bd55022a1461073a578063d64612a314610758578063dff43434146107ff578063eb4b1bc814610874576100b4565b806306661abd146100b957806309e1d399146100d7578063201c5cc11461019257806342b759fc1461024d57806365f53d62146103265780639fa637a814610478575b600080fd5b6100c1610980565b6040518082815260200191505060405180910390f35b610190600480360360208110156100ed57600080fd5b810190808035906020019064010000000081111561010a57600080fd5b82018360208201111561011c57600080fd5b8035906020019184600183028401116401000000008311171561013e57600080fd5b91908080601f016020809104026020016040519081016040528093929190818152602001838380828437600081840152601f19601f820116905080830192505050505050509192919290505050610986565b005b61024b600480360360208110156101a857600080fd5b81019080803590602001906401000000008111156101c557600080fd5b8201836020820111156101d757600080fd5b803590602001918460018302840111640100000000831117156101f957600080fd5b91908080601f016020809104026020016040519081016040528093929190818152602001838380828437600081840152601f19601f820116905080830192505050505050509192919290505050610b93565b005b6103106004803603604081101561026357600080fd5b810190808035906020019064010000000081111561028057600080fd5b82018360208201111561029257600080fd5b803590602001918460018302840111640100000000831117156102b457600080fd5b91908080601f016020809104026020016040519081016040528093929190818152602001838380828437600081840152601f19601f82011690508083019250505050505050919291929080359060200190929190505050610d25565b6040518082815260200191505060405180910390f35b6104766004803603604081101561033c57600080fd5b810190808035906020019064010000000081111561035957600080fd5b82018360208201111561036b57600080fd5b8035906020019184600183028401116401000000008311171561038d57600080fd5b91908080601f016020809104026020016040519081016040528093929190818152602001838380828437600081840152601f19601f820116905080830192505050505050509192919290803590602001906401000000008111156103f057600080fd5b82018360208201111561040257600080fd5b8035906020019184600183028401116401000000008311171561042457600080fd5b91908080601f016020809104026020016040519081016040528093929190818152602001838380828437600081840152601f19601f820116905080830192505050505050509192919290505050610db5565b005b6105316004803603602081101561048e57600080fd5b81019080803590602001906401000000008111156104ab57600080fd5b8201836020820111156104bd57600080fd5b803590602001918460018302840111640100000000831117156104df57600080fd5b91908080601f016020809104026020016040519081016040528093929190818152602001838380828437600081840152601f19601f820116905080830192505050505050509192919290505050610e91565b6040518080602001828103825283818151815260200191508051906020019080838360005b83811015610571578082015181840152602081019050610556565b50505050905090810190601f16801561059e5780820380516001836020036101000a031916815260200191505b509250505060405180910390f35b610665600480360360208110156105c257600080fd5b81019080803590602001906401000000008111156105df57600080fd5b8201836020820111156105f157600080fd5b8035906020019184600183028401116401000000008311171561061357600080fd5b91908080601f016020809104026020016040519081016040528093929190818152602001838380828437600081840152601f19601f820116905080830192505050505050509192919290505050610f9c565b604051808215151515815260200191505060405180910390f35b6107386004803603602081101561069557600080fd5b81019080803590602001906401000000008111156106b257600080fd5b8201836020820111156106c457600080fd5b803590602001918460018302840111640100000000831117156106e657600080fd5b91908080601f016020809104026020016040519081016040528093929190818152602001838380828437600081840152601f19601f82011690508083019250505050505050919291929050505061108a565b005b61074261121c565b6040518082815260200191505060405180910390f35b6107846004803603602081101561076e57600080fd5b8101908080359060200190929190505050611222565b6040518080602001828103825283818151815260200191508051906020019080838360005b838110156107c45780820151818401526020810190506107a9565b50505050905090810190601f1680156107f15780820380516001836020036101000a031916815260200191505b509250505060405180910390f35b61082b6004803603602081101561081557600080fd5b81019080803590602001909291905050506112db565b604051808373ffffffffffffffffffffffffffffffffffffffff1673ffffffffffffffffffffffffffffffffffffffff1681526020018281526020019250505060405180910390f35b6109376004803603604081101561088a57600080fd5b81019080803590602001906401000000008111156108a757600080fd5b8201836020820111156108b957600080fd5b803590602001918460018302840111640100000000831117156108db57600080fd5b91908080601f016020809104026020016040519081016040528093929190818152602001838380828437600081840152601f19601f8201169050808301925050505050505091929192908035906020019092919050505061132c565b604051808373ffffffffffffffffffffffffffffffffffffffff1673ffffffffffffffffffffffffffffffffffffffff1681526020018281526020019250505060405180910390f35b60005481565b600060048054905090506060816040519080825280602002602001820160405280156109cc57816020015b6109b96113a0565b8152602001906001900390816109b15790505b50905060008090505b600480549050811015610b13576109ea6113d0565b600482815481106109f757fe5b906000526020600020906002020160000160009054906101000a900473ffffffffffffffffffffffffffffffffffffffff16816000019073ffffffffffffffffffffffffffffffffffffffff16908173ffffffffffffffffffffffffffffffffffffffff1681525050600081602001818152505080838381518110610a7857fe5b60200260200101819052506005819080600181540180825580915050906001820390600052602060002090600202016000909192909190915060008201518160000160006101000a81548173ffffffffffffffffffffffffffffffffffffffff021916908373ffffffffffffffffffffffffffffffffffffffff160217905550602082015181600101555050505080806001019150506109d5565b5060056006846040518082805190602001908083835b60208310610b4c5780518252602082019150602081019050602083039250610b29565b6001836020036101000a0380198251168184511680821785525050505050509050019150509081526020016040518091039020908054610b8d929190611400565b50505050565b600080905060008090505b600480549050811015610c95573373ffffffffffffffffffffffffffffffffffffffff166006846040518082805190602001908083835b60208310610bf85780518252602082019150602081019050602083039250610bd5565b6001836020036101000a03801982511681845116808217855250505050505090500191505090815260200160405180910390208281548110610c3657fe5b906000526020600020906002020160000160009054906101000a900473ffffffffffffffffffffffffffffffffffffffff1673ffffffffffffffffffffffffffffffffffffffff161415610c88578091505b8080600101915050610b9e565b5060026006836040518082805190602001908083835b60208310610cce5780518252602082019150602081019050602083039250610cab565b6001836020036101000a03801982511681845116808217855250505050505090500191505090815260200160405180910390208281548110610d0c57fe5b9060005260206000209060020201600101819055505050565b60006006836040518082805190602001908083835b60208310610d5d5780518252602082019150602081019050602083039250610d3a565b6001836020036101000a03801982511681845116808217855250505050505090500191505090815260200160405180910390208281548110610d9b57fe5b906000526020600020906002020160010154905092915050565b6002829080600181540180825580915050906001820390600052602060002001600090919290919091509080519060200190610df29291906114c9565b5050806003836040518082805190602001908083835b60208310610e2b5780518252602082019150602081019050602083039250610e08565b6001836020036101000a03801982511681845116808217855250505050505090500191505090815260200160405180910390209080519060200190610e719291906114c9565b50600160008154809291906001019190505550610e8d82610986565b5050565b60606003826040518082805190602001908083835b60208310610ec95780518252602082019150602081019050602083039250610ea6565b6001836020036101000a03801982511681845116808217855250505050505090500191505090815260200160405180910390208054600181600116156101000203166002900480601f016020809104026020016040519081016040528092919081815260200182805460018160011615610100020316600290048015610f905780601f10610f6557610100808354040283529160200191610f90565b820191906000526020600020905b815481529060010190602001808311610f7357829003601f168201915b50505050509050919050565b6000806000905060008090505b60048054905081101561105a5760016006856040518082805190602001908083835b60208310610fee5780518252602082019150602081019050602083039250610fcb565b6001836020036101000a0380198251168184511680821785525050505050509050019150509081526020016040518091039020828154811061102c57fe5b906000526020600020906002020160010154141561104d5781806001019250505b8080600101915050610fa9565b50600a6004805490506005028161106d57fe5b0481111561107f576001915050611085565b60009150505b919050565b600080905060008090505b60048054905081101561118c573373ffffffffffffffffffffffffffffffffffffffff166006846040518082805190602001908083835b602083106110ef57805182526020820191506020810190506020830392506110cc565b6001836020036101000a0380198251168184511680821785525050505050509050019150509081526020016040518091039020828154811061112d57fe5b906000526020600020906002020160000160009054906101000a900473ffffffffffffffffffffffffffffffffffffffff1673ffffffffffffffffffffffffffffffffffffffff16141561117f578091505b8080600101915050611095565b5060016006836040518082805190602001908083835b602083106111c557805182526020820191506020810190506020830392506111a2565b6001836020036101000a0380198251168184511680821785525050505050509050019150509081526020016040518091039020828154811061120357fe5b9060005260206000209060020201600101819055505050565b60015481565b6002818154811061122f57fe5b906000526020600020016000915090508054600181600116156101000203166002900480601f0160208091040260200160405190810160405280929190818152602001828054600181600116156101000203166002900480156112d35780601f106112a8576101008083540402835291602001916112d3565b820191906000526020600020905b8154815290600101906020018083116112b657829003601f168201915b505050505081565b600481815481106112e857fe5b90600052602060002090600202016000915090508060000160009054906101000a900473ffffffffffffffffffffffffffffffffffffffff16908060010154905082565b600682805160208101820180518482526020830160208501208183528095505050505050818154811061135b57fe5b9060005260206000209060020201600091509150508060000160009054906101000a900473ffffffffffffffffffffffffffffffffffffffff16908060010154905082565b6040518060400160405280600073ffffffffffffffffffffffffffffffffffffffff168152602001600081525090565b6040518060400160405280600073ffffffffffffffffffffffffffffffffffffffff168152602001600081525090565b8280548282559060005260206000209060020281019282156114b85760005260206000209160020282015b828111156114b75782826000820160009054906101000a900473ffffffffffffffffffffffffffffffffffffffff168160000160006101000a81548173ffffffffffffffffffffffffffffffffffffffff021916908373ffffffffffffffffffffffffffffffffffffffff1602179055506001820154816001015550509160020191906002019061142b565b5b5090506114c59190611549565b5090565b828054600181600116156101000203166002900490600052602060002090601f016020900481019282601f1061150a57805160ff1916838001178555611538565b82800160010185558215611538579182015b8281111561153757825182559160200191906001019061151c565b5b5090506115459190611597565b5090565b61159491905b8082111561159057600080820160006101000a81549073ffffffffffffffffffffffffffffffffffffffff021916905560018201600090555060020161154f565b5090565b90565b6115b991905b808211156115b557600081600090555060010161159d565b5090565b9056fea265627a7a72315820a9ecd1b0671bbee8286170f4f9d5fbbed3fc4006b00d35eea30146e7e2fb1d7964736f6c63430005100032",
  "source": "//// SPDX-License-Identifier: MIT\npragma solidity >=0.5.1 <0.7.0;\n\n\ncontract Trades {\n    uint256 public count;\n    uint256 public tradeCount;\n    string[] public tradeId;\n    \n    mapping(string => string) tradeList;\n\n    struct Curator {\n        address addr;\n        int256 validated;\n    }\n\n    Curator[] public curators;\n    Curator[] tempC;\n\n    mapping(string => Curator[]) public approval;\n\n    constructor(address[] memory curatorsList) public {\n        for (uint256 i = 0; i < curatorsList.length; i++) {\n            Curator memory t;\n            t.addr = curatorsList[i];\n            t.validated = 0;\n            curators.push(t);\n            count ++;\n        }\n    }\n\n    function setApprovals(string memory _id) public {\n        uint256 cnt = curators.length;\n        Curator[] memory c = new Curator[](cnt);\n\n        for (uint256 i = 0; i < curators.length; i++) {\n            Curator memory t;\n            t.addr = curators[i].addr;\n            t.validated = 0;\n            c[i] = t;\n            tempC.push(t);\n        }\n\n        approval[_id] = tempC;\n    }\n    \n    function approve(string memory _id) public {\n        uint x = 0;\n        for(uint i=0; i<curators.length; i++){\n            if(approval[_id][i].addr == msg.sender){\n                x = i;\n            }\n        }        \n        approval[_id][x].validated = 1;\n    }\n    \n    function reject(string memory _id) public {\n        uint x = 0;\n        for(uint i=0; i<curators.length; i++){\n            if(approval[_id][i].addr == msg.sender){\n                x = i;\n            }\n        }        \n        approval[_id][x].validated = 2;\n    }\n    \n    function allApproved(string memory _id) public view returns(bool res){\n        uint counter = 0;\n        \n        for(uint i=0; i<curators.length; i++){\n            if(approval[_id][i].validated == 1){\n                counter ++;\n            }\n        }\n        \n        if(counter > (5*curators.length)/10){\n            return true;\n        }else{\n            return false;\n        }\n        \n    }    \n    \n    function getStatus(string memory _id, uint n) public view returns(int256 stat){\n    \treturn approval[_id][n].validated;\n    }\n    \n    function setTrade(string memory _id, string memory _tHash) public {\n        \n        tradeId.push(_id);\n        tradeList[_id] = _tHash;\n        tradeCount++;\n        setApprovals(_id);\n    } \n    \n    function getTrade(string memory _id) public view returns(string memory _name){ \n        \n        return (tradeList[_id]);\n    } \n}\n",
  "sourcePath": "/home/ajinkya/Downloads/Manipal Hackathon/Main Folder/1225-Debug/BlockTradeCurator/src/contracts/Trades.sol",
  "compiler": {
    "name": "solc",
    "version": "0.5.16+commit.9c3226ce.Emscripten.clang"
  },
  "schemaVersion": "3.2.0",
  "updatedAt": "2020-11-07T12:58:38.857Z",
  "networkType": "ethereum",
  "devdoc": {
    "methods": {}
  },
  "userdoc": {
    "methods": {}
  }
}