{
  "contractName": "Trades",
  "abi": [
    {
      "inputs": [
        {
          "internalType": "address[]",
          "name": "curatorsList",
          "type": "address[]"
        }
      ],
      "payable": false,
      "stateMutability": "nonpayable",
      "type": "constructor"
    },
    {
      "constant": true,
      "inputs": [
        {
          "internalType": "string",
          "name": "",
          "type": "string"
        },
        {
          "internalType": "uint256",
          "name": "",
          "type": "uint256"
        }
      ],
      "name": "approval",
      "outputs": [
        {
          "internalType": "address",
          "name": "addr",
          "type": "address"
        },
        {
          "internalType": "int256",
          "name": "validated",
          "type": "int256"
        }
      ],
      "payable": false,
      "stateMutability": "view",
      "type": "function"
    },
    {
      "constant": true,
      "inputs": [],
      "name": "count",
      "outputs": [
        {
          "internalType": "uint256",
          "name": "",
          "type": "uint256"
        }
      ],
      "payable": false,
      "stateMutability": "view",
      "type": "function"
    },
    {
      "constant": true,
      "inputs": [
        {
          "internalType": "uint256",
          "name": "",
          "type": "uint256"
        }
      ],
      "name": "curators",
      "outputs": [
        {
          "internalType": "address",
          "name": "addr",
          "type": "address"
        },
        {
          "internalType": "int256",
          "name": "validated",
          "type": "int256"
        }
      ],
      "payable": false,
      "stateMutability": "view",
      "type": "function"
    },
    {
      "constant": true,
      "inputs": [
        {
          "internalType": "uint256",
          "name": "",
          "type": "uint256"
        }
      ],
      "name": "tradeId",
      "outputs": [
        {
          "internalType": "string",
          "name": "",
          "type": "string"
        }
      ],
      "payable": false,
      "stateMutability": "view",
      "type": "function"
    },
    {
      "constant": false,
      "inputs": [
        {
          "internalType": "string",
          "name": "_id",
          "type": "string"
        }
      ],
      "name": "setApprovals",
      "outputs": [],
      "payable": false,
      "stateMutability": "nonpayable",
      "type": "function"
    },
    {
      "constant": false,
      "inputs": [
        {
          "internalType": "string",
          "name": "_id",
          "type": "string"
        }
      ],
      "name": "approve",
      "outputs": [],
      "payable": false,
      "stateMutability": "nonpayable",
      "type": "function"
    },
    {
      "constant": false,
      "inputs": [
        {
          "internalType": "string",
          "name": "_id",
          "type": "string"
        }
      ],
      "name": "reject",
      "outputs": [],
      "payable": false,
      "stateMutability": "nonpayable",
      "type": "function"
    },
    {
      "constant": true,
      "inputs": [
        {
          "internalType": "string",
          "name": "_id",
          "type": "string"
        }
      ],
      "name": "allApproved",
      "outputs": [
        {
          "internalType": "bool",
          "name": "res",
          "type": "bool"
        }
      ],
      "payable": false,
      "stateMutability": "view",
      "type": "function"
    },
    {
      "constant": true,
      "inputs": [
        {
          "internalType": "string",
          "name": "_id",
          "type": "string"
        },
        {
          "internalType": "uint256",
          "name": "n",
          "type": "uint256"
        }
      ],
      "name": "getStatus",
      "outputs": [
        {
          "internalType": "int256",
          "name": "stat",
          "type": "int256"
        }
      ],
      "payable": false,
      "stateMutability": "view",
      "type": "function"
    },
    {
      "constant": false,
      "inputs": [
        {
          "internalType": "string",
          "name": "_id",
          "type": "string"
        },
        {
          "internalType": "string",
          "name": "_tHash",
          "type": "string"
        }
      ],
      "name": "setTrade",
      "outputs": [],
      "payable": false,
      "stateMutability": "nonpayable",
      "type": "function"
    },
    {
      "constant": true,
      "inputs": [
        {
          "internalType": "string",
          "name": "_id",
          "type": "string"
        }
      ],
      "name": "getTrade",
      "outputs": [
        {
          "internalType": "string",
          "name": "_name",
          "type": "string"
        }
      ],
      "payable": false,
      "stateMutability": "view",
      "type": "function"
    }
  ],
  "bytecode": "0x60806040523480156200001157600080fd5b50604051620017e6380380620017e6833981810160405260208110156200003757600080fd5b81019080805160405193929190846401000000008211156200005857600080fd5b838201915060208201858111156200006f57600080fd5b82518660208202830111640100000000821117156200008d57600080fd5b8083526020830192505050908051906020019060200280838360005b83811015620000c6578082015181840152602081019050620000a9565b5050505090500160405250505060008090505b8151811015620001e657620000ed620001ee565b828281518110620000fa57fe5b6020026020010151816000019073ffffffffffffffffffffffffffffffffffffffff16908173ffffffffffffffffffffffffffffffffffffffff168152505060008160200181815250506003819080600181540180825580915050906001820390600052602060002090600202016000909192909190915060008201518160000160006101000a81548173ffffffffffffffffffffffffffffffffffffffff021916908373ffffffffffffffffffffffffffffffffffffffff160217905550602082015181600101555050506000808154809291906001019190505550508080600101915050620000d9565b50506200021e565b6040518060400160405280600073ffffffffffffffffffffffffffffffffffffffff168152602001600081525090565b6115b8806200022e6000396000f3fe608060405234801561001057600080fd5b50600436106100a95760003560e01c80639fa637a8116100715780639fa637a81461046d578063ac2ca40f146105a1578063b67b716314610674578063d64612a31461072f578063dff43434146107d6578063eb4b1bc81461084b576100a9565b806306661abd146100ae57806309e1d399146100cc578063201c5cc11461018757806342b759fc1461024257806365f53d621461031b575b600080fd5b6100b6610957565b6040518082815260200191505060405180910390f35b610185600480360360208110156100e257600080fd5b81019080803590602001906401000000008111156100ff57600080fd5b82018360208201111561011157600080fd5b8035906020019184600183028401116401000000008311171561013357600080fd5b91908080601f016020809104026020016040519081016040528093929190818152602001838380828437600081840152601f19601f82011690508083019250505050505050919291929050505061095d565b005b6102406004803603602081101561019d57600080fd5b81019080803590602001906401000000008111156101ba57600080fd5b8201836020820111156101cc57600080fd5b803590602001918460018302840111640100000000831117156101ee57600080fd5b91908080601f016020809104026020016040519081016040528093929190818152602001838380828437600081840152601f19601f820116905080830192505050505050509192919290505050610b6a565b005b6103056004803603604081101561025857600080fd5b810190808035906020019064010000000081111561027557600080fd5b82018360208201111561028757600080fd5b803590602001918460018302840111640100000000831117156102a957600080fd5b91908080601f016020809104026020016040519081016040528093929190818152602001838380828437600081840152601f19601f82011690508083019250505050505050919291929080359060200190929190505050610cfc565b6040518082815260200191505060405180910390f35b61046b6004803603604081101561033157600080fd5b810190808035906020019064010000000081111561034e57600080fd5b82018360208201111561036057600080fd5b8035906020019184600183028401116401000000008311171561038257600080fd5b91908080601f016020809104026020016040519081016040528093929190818152602001838380828437600081840152601f19601f820116905080830192505050505050509192919290803590602001906401000000008111156103e557600080fd5b8201836020820111156103f757600080fd5b8035906020019184600183028401116401000000008311171561041957600080fd5b91908080601f016020809104026020016040519081016040528093929190818152602001838380828437600081840152601f19601f820116905080830192505050505050509192919290505050610d8c565b005b6105266004803603602081101561048357600080fd5b81019080803590602001906401000000008111156104a057600080fd5b8201836020820111156104b257600080fd5b803590602001918460018302840111640100000000831117156104d457600080fd5b91908080601f016020809104026020016040519081016040528093929190818152602001838380828437600081840152601f19601f820116905080830192505050505050509192919290505050610e5e565b6040518080602001828103825283818151815260200191508051906020019080838360005b8381101561056657808201518184015260208101905061054b565b50505050905090810190601f1680156105935780820380516001836020036101000a031916815260200191505b509250505060405180910390f35b61065a600480360360208110156105b757600080fd5b81019080803590602001906401000000008111156105d457600080fd5b8201836020820111156105e657600080fd5b8035906020019184600183028401116401000000008311171561060857600080fd5b91908080601f016020809104026020016040519081016040528093929190818152602001838380828437600081840152601f19601f820116905080830192505050505050509192919290505050610f69565b604051808215151515815260200191505060405180910390f35b61072d6004803603602081101561068a57600080fd5b81019080803590602001906401000000008111156106a757600080fd5b8201836020820111156106b957600080fd5b803590602001918460018302840111640100000000831117156106db57600080fd5b91908080601f016020809104026020016040519081016040528093929190818152602001838380828437600081840152601f19601f820116905080830192505050505050509192919290505050611057565b005b61075b6004803603602081101561074557600080fd5b81019080803590602001909291905050506111e9565b6040518080602001828103825283818151815260200191508051906020019080838360005b8381101561079b578082015181840152602081019050610780565b50505050905090810190601f1680156107c85780820380516001836020036101000a031916815260200191505b509250505060405180910390f35b610802600480360360208110156107ec57600080fd5b81019080803590602001909291905050506112a2565b604051808373ffffffffffffffffffffffffffffffffffffffff1673ffffffffffffffffffffffffffffffffffffffff1681526020018281526020019250505060405180910390f35b61090e6004803603604081101561086157600080fd5b810190808035906020019064010000000081111561087e57600080fd5b82018360208201111561089057600080fd5b803590602001918460018302840111640100000000831117156108b257600080fd5b91908080601f016020809104026020016040519081016040528093929190818152602001838380828437600081840152601f19601f820116905080830192505050505050509192919290803590602001909291905050506112f3565b604051808373ffffffffffffffffffffffffffffffffffffffff1673ffffffffffffffffffffffffffffffffffffffff1681526020018281526020019250505060405180910390f35b60005481565b600060038054905090506060816040519080825280602002602001820160405280156109a357816020015b610990611367565b8152602001906001900390816109885790505b50905060008090505b600380549050811015610aea576109c1611397565b600382815481106109ce57fe5b906000526020600020906002020160000160009054906101000a900473ffffffffffffffffffffffffffffffffffffffff16816000019073ffffffffffffffffffffffffffffffffffffffff16908173ffffffffffffffffffffffffffffffffffffffff1681525050600081602001818152505080838381518110610a4f57fe5b60200260200101819052506004819080600181540180825580915050906001820390600052602060002090600202016000909192909190915060008201518160000160006101000a81548173ffffffffffffffffffffffffffffffffffffffff021916908373ffffffffffffffffffffffffffffffffffffffff160217905550602082015181600101555050505080806001019150506109ac565b5060046005846040518082805190602001908083835b60208310610b235780518252602082019150602081019050602083039250610b00565b6001836020036101000a0380198251168184511680821785525050505050509050019150509081526020016040518091039020908054610b649291906113c7565b50505050565b600080905060008090505b600380549050811015610c6c573373ffffffffffffffffffffffffffffffffffffffff166005846040518082805190602001908083835b60208310610bcf5780518252602082019150602081019050602083039250610bac565b6001836020036101000a03801982511681845116808217855250505050505090500191505090815260200160405180910390208281548110610c0d57fe5b906000526020600020906002020160000160009054906101000a900473ffffffffffffffffffffffffffffffffffffffff1673ffffffffffffffffffffffffffffffffffffffff161415610c5f578091505b8080600101915050610b75565b5060026005836040518082805190602001908083835b60208310610ca55780518252602082019150602081019050602083039250610c82565b6001836020036101000a03801982511681845116808217855250505050505090500191505090815260200160405180910390208281548110610ce357fe5b9060005260206000209060020201600101819055505050565b60006005836040518082805190602001908083835b60208310610d345780518252602082019150602081019050602083039250610d11565b6001836020036101000a03801982511681845116808217855250505050505090500191505090815260200160405180910390208281548110610d7257fe5b906000526020600020906002020160010154905092915050565b6001829080600181540180825580915050906001820390600052602060002001600090919290919091509080519060200190610dc9929190611490565b5050806002836040518082805190602001908083835b60208310610e025780518252602082019150602081019050602083039250610ddf565b6001836020036101000a03801982511681845116808217855250505050505090500191505090815260200160405180910390209080519060200190610e48929190611490565b5060008081548092919060010191905055505050565b60606002826040518082805190602001908083835b60208310610e965780518252602082019150602081019050602083039250610e73565b6001836020036101000a03801982511681845116808217855250505050505090500191505090815260200160405180910390208054600181600116156101000203166002900480601f016020809104026020016040519081016040528092919081815260200182805460018160011615610100020316600290048015610f5d5780601f10610f3257610100808354040283529160200191610f5d565b820191906000526020600020905b815481529060010190602001808311610f4057829003601f168201915b50505050509050919050565b6000806000905060008090505b6003805490508110156110275760016005856040518082805190602001908083835b60208310610fbb5780518252602082019150602081019050602083039250610f98565b6001836020036101000a03801982511681845116808217855250505050505090500191505090815260200160405180910390208281548110610ff957fe5b906000526020600020906002020160010154141561101a5781806001019250505b8080600101915050610f76565b50600a6003805490506005028161103a57fe5b0481111561104c576001915050611052565b60009150505b919050565b600080905060008090505b600380549050811015611159573373ffffffffffffffffffffffffffffffffffffffff166005846040518082805190602001908083835b602083106110bc5780518252602082019150602081019050602083039250611099565b6001836020036101000a038019825116818451168082178552505050505050905001915050908152602001604051809103902082815481106110fa57fe5b906000526020600020906002020160000160009054906101000a900473ffffffffffffffffffffffffffffffffffffffff1673ffffffffffffffffffffffffffffffffffffffff16141561114c578091505b8080600101915050611062565b5060016005836040518082805190602001908083835b60208310611192578051825260208201915060208101905060208303925061116f565b6001836020036101000a038019825116818451168082178552505050505050905001915050908152602001604051809103902082815481106111d057fe5b9060005260206000209060020201600101819055505050565b600181815481106111f657fe5b906000526020600020016000915090508054600181600116156101000203166002900480601f01602080910402602001604051908101604052809291908181526020018280546001816001161561010002031660029004801561129a5780601f1061126f5761010080835404028352916020019161129a565b820191906000526020600020905b81548152906001019060200180831161127d57829003601f168201915b505050505081565b600381815481106112af57fe5b90600052602060002090600202016000915090508060000160009054906101000a900473ffffffffffffffffffffffffffffffffffffffff16908060010154905082565b600582805160208101820180518482526020830160208501208183528095505050505050818154811061132257fe5b9060005260206000209060020201600091509150508060000160009054906101000a900473ffffffffffffffffffffffffffffffffffffffff16908060010154905082565b6040518060400160405280600073ffffffffffffffffffffffffffffffffffffffff168152602001600081525090565b6040518060400160405280600073ffffffffffffffffffffffffffffffffffffffff168152602001600081525090565b82805482825590600052602060002090600202810192821561147f5760005260206000209160020282015b8281111561147e5782826000820160009054906101000a900473ffffffffffffffffffffffffffffffffffffffff168160000160006101000a81548173ffffffffffffffffffffffffffffffffffffffff021916908373ffffffffffffffffffffffffffffffffffffffff160217905550600182015481600101555050916002019190600201906113f2565b5b50905061148c9190611510565b5090565b828054600181600116156101000203166002900490600052602060002090601f016020900481019282601f106114d157805160ff19168380011785556114ff565b828001600101855582156114ff579182015b828111156114fe5782518255916020019190600101906114e3565b5b50905061150c919061155e565b5090565b61155b91905b8082111561155757600080820160006101000a81549073ffffffffffffffffffffffffffffffffffffffff0219169055600182016000905550600201611516565b5090565b90565b61158091905b8082111561157c576000816000905550600101611564565b5090565b9056fea265627a7a72315820bd9ab37bc0f63b9feed48026d992b744ef7df7c5e192fcf70f779b495f06e4b764736f6c63430005100032",
  "source": "//// SPDX-License-Identifier: MIT\npragma solidity >=0.5.1 <0.7.0;\n\n\ncontract Trades {\n    uint256 public count;\n    string[] public tradeId;\n    \n    mapping(string => string) tradeList;\n\n    struct Curator {\n        address addr;\n        int256 validated;\n    }\n\n    Curator[] public curators;\n    Curator[] tempC;\n\n    mapping(string => Curator[]) public approval;\n\n    constructor(address[] memory curatorsList) public {\n        for (uint256 i = 0; i < curatorsList.length; i++) {\n            Curator memory t;\n            t.addr = curatorsList[i];\n            t.validated = 0;\n            curators.push(t);\n            count ++;\n        }\n    }\n\n    function setApprovals(string memory _id) public {\n        uint256 cnt = curators.length;\n        Curator[] memory c = new Curator[](cnt);\n\n        for (uint256 i = 0; i < curators.length; i++) {\n            Curator memory t;\n            t.addr = curators[i].addr;\n            t.validated = 0;\n            c[i] = t;\n            tempC.push(t);\n        }\n\n        approval[_id] = tempC;\n    }\n    \n    function approve(string memory _id) public {\n        uint x = 0;\n        for(uint i=0; i<curators.length; i++){\n            if(approval[_id][i].addr == msg.sender){\n                x = i;\n            }\n        }\n        \n        approval[_id][x].validated = 1;\n    }\n    \n    function reject(string memory _id) public {\n        uint x = 0;\n        for(uint i=0; i<curators.length; i++){\n            if(approval[_id][i].addr == msg.sender){\n                x = i;\n            }\n        }\n        \n        approval[_id][x].validated = 2;\n    }\n    \n    function allApproved(string memory _id) public view returns(bool res){\n        uint counter = 0;\n        \n        for(uint i=0; i<curators.length; i++){\n            if(approval[_id][i].validated == 1){\n                counter ++;\n            }\n        }\n        \n        if(counter > (5*curators.length)/10){\n            return true;\n        }else{\n            return false;\n        }\n        \n    }    \n    \n    function getStatus(string memory _id, uint n) public view returns(int256 stat){\n    \treturn approval[_id][n].validated;\n    }\n    \n    function setTrade(string memory _id, string memory _tHash) public {\n        \n        tradeId.push(_id);\n        tradeList[_id] = _tHash;\n        count++;\n    } \n    \n    function getTrade(string memory _id) public view returns(string memory _name){ \n        \n        return (tradeList[_id]);\n    } \n}\n",
  "sourcePath": "/home/ajinkya/Documents/Dapps/BlockTrade-UserApp/src/contracts/Trades.sol",
  "compiler": {
    "name": "solc",
    "version": "0.5.16+commit.9c3226ce.Emscripten.clang"
  },
  "schemaVersion": "3.2.0",
  "updatedAt": "2020-11-05T06:01:49.330Z",
  "networkType": "ethereum",
  "devdoc": {
    "methods": {}
  },
  "userdoc": {
    "methods": {}
  }
}