{
  "contractName": "TradeApprovals",
  "abi": [
    {
      "inputs": [
        {
          "internalType": "address[]",
          "name": "curatorsList",
          "type": "address[]"
        }
      ],
      "payable": false,
      "stateMutability": "nonpayable",
      "type": "constructor"
    },
    {
      "constant": true,
      "inputs": [
        {
          "internalType": "string",
          "name": "",
          "type": "string"
        },
        {
          "internalType": "uint256",
          "name": "",
          "type": "uint256"
        }
      ],
      "name": "approval",
      "outputs": [
        {
          "internalType": "address",
          "name": "addr",
          "type": "address"
        },
        {
          "internalType": "int256",
          "name": "validated",
          "type": "int256"
        }
      ],
      "payable": false,
      "stateMutability": "view",
      "type": "function"
    },
    {
      "constant": true,
      "inputs": [],
      "name": "count",
      "outputs": [
        {
          "internalType": "uint256",
          "name": "",
          "type": "uint256"
        }
      ],
      "payable": false,
      "stateMutability": "view",
      "type": "function"
    },
    {
      "constant": true,
      "inputs": [
        {
          "internalType": "uint256",
          "name": "",
          "type": "uint256"
        }
      ],
      "name": "curators",
      "outputs": [
        {
          "internalType": "address",
          "name": "addr",
          "type": "address"
        },
        {
          "internalType": "int256",
          "name": "validated",
          "type": "int256"
        }
      ],
      "payable": false,
      "stateMutability": "view",
      "type": "function"
    },
    {
      "constant": false,
      "inputs": [
        {
          "internalType": "string",
          "name": "_id",
          "type": "string"
        }
      ],
      "name": "setApprovals",
      "outputs": [],
      "payable": false,
      "stateMutability": "nonpayable",
      "type": "function"
    },
    {
      "constant": false,
      "inputs": [
        {
          "internalType": "string",
          "name": "_id",
          "type": "string"
        }
      ],
      "name": "approve",
      "outputs": [],
      "payable": false,
      "stateMutability": "nonpayable",
      "type": "function"
    },
    {
      "constant": false,
      "inputs": [
        {
          "internalType": "string",
          "name": "_id",
          "type": "string"
        }
      ],
      "name": "reject",
      "outputs": [],
      "payable": false,
      "stateMutability": "nonpayable",
      "type": "function"
    },
    {
      "constant": true,
      "inputs": [
        {
          "internalType": "string",
          "name": "_id",
          "type": "string"
        }
      ],
      "name": "allApproved",
      "outputs": [
        {
          "internalType": "bool",
          "name": "res",
          "type": "bool"
        }
      ],
      "payable": false,
      "stateMutability": "view",
      "type": "function"
    },
    {
      "constant": true,
      "inputs": [
        {
          "internalType": "string",
          "name": "_id",
          "type": "string"
        },
        {
          "internalType": "uint256",
          "name": "n",
          "type": "uint256"
        }
      ],
      "name": "getStatus",
      "outputs": [
        {
          "internalType": "int256",
          "name": "stat",
          "type": "int256"
        }
      ],
      "payable": false,
      "stateMutability": "view",
      "type": "function"
    }
  ],
  "bytecode": "0x608060405234801561001057600080fd5b5060405161114d38038061114d8339818101604052602081101561003357600080fd5b810190808051604051939291908464010000000082111561005357600080fd5b8382019150602082018581111561006957600080fd5b825186602082028301116401000000008211171561008657600080fd5b8083526020830192505050908051906020019060200280838360005b838110156100bd5780820151818401526020810190506100a2565b5050505090500160405250505060008090505b81518110156101d8576100e16101df565b8282815181106100ed57fe5b6020026020010151816000019073ffffffffffffffffffffffffffffffffffffffff16908173ffffffffffffffffffffffffffffffffffffffff168152505060008160200181815250506001819080600181540180825580915050906001820390600052602060002090600202016000909192909190915060008201518160000160006101000a81548173ffffffffffffffffffffffffffffffffffffffff021916908373ffffffffffffffffffffffffffffffffffffffff1602179055506020820151816001015550505060008081548092919060010191905055505080806001019150506100d0565b505061020f565b6040518060400160405280600073ffffffffffffffffffffffffffffffffffffffff168152602001600081525090565b610f2f8061021e6000396000f3fe608060405234801561001057600080fd5b50600436106100885760003560e01c8063ac2ca40f1161005b578063ac2ca40f146102fa578063b67b7163146103cd578063dff4343414610488578063eb4b1bc8146104fd57610088565b806306661abd1461008d57806309e1d399146100ab578063201c5cc11461016657806342b759fc14610221575b600080fd5b610095610609565b6040518082815260200191505060405180910390f35b610164600480360360208110156100c157600080fd5b81019080803590602001906401000000008111156100de57600080fd5b8201836020820111156100f057600080fd5b8035906020019184600183028401116401000000008311171561011257600080fd5b91908080601f016020809104026020016040519081016040528093929190818152602001838380828437600081840152601f19601f82011690508083019250505050505050919291929050505061060f565b005b61021f6004803603602081101561017c57600080fd5b810190808035906020019064010000000081111561019957600080fd5b8201836020820111156101ab57600080fd5b803590602001918460018302840111640100000000831117156101cd57600080fd5b91908080601f016020809104026020016040519081016040528093929190818152602001838380828437600081840152601f19601f82011690508083019250505050505050919291929050505061081c565b005b6102e46004803603604081101561023757600080fd5b810190808035906020019064010000000081111561025457600080fd5b82018360208201111561026657600080fd5b8035906020019184600183028401116401000000008311171561028857600080fd5b91908080601f016020809104026020016040519081016040528093929190818152602001838380828437600081840152601f19601f820116905080830192505050505050509192919290803590602001909291905050506109ae565b6040518082815260200191505060405180910390f35b6103b36004803603602081101561031057600080fd5b810190808035906020019064010000000081111561032d57600080fd5b82018360208201111561033f57600080fd5b8035906020019184600183028401116401000000008311171561036157600080fd5b91908080601f016020809104026020016040519081016040528093929190818152602001838380828437600081840152601f19601f820116905080830192505050505050509192919290505050610a3e565b604051808215151515815260200191505060405180910390f35b610486600480360360208110156103e357600080fd5b810190808035906020019064010000000081111561040057600080fd5b82018360208201111561041257600080fd5b8035906020019184600183028401116401000000008311171561043457600080fd5b91908080601f016020809104026020016040519081016040528093929190818152602001838380828437600081840152601f19601f820116905080830192505050505050509192919290505050610b2c565b005b6104b46004803603602081101561049e57600080fd5b8101908080359060200190929190505050610cbe565b604051808373ffffffffffffffffffffffffffffffffffffffff1673ffffffffffffffffffffffffffffffffffffffff1681526020018281526020019250505060405180910390f35b6105c06004803603604081101561051357600080fd5b810190808035906020019064010000000081111561053057600080fd5b82018360208201111561054257600080fd5b8035906020019184600183028401116401000000008311171561056457600080fd5b91908080601f016020809104026020016040519081016040528093929190818152602001838380828437600081840152601f19601f82011690508083019250505050505050919291929080359060200190929190505050610d0f565b604051808373ffffffffffffffffffffffffffffffffffffffff1673ffffffffffffffffffffffffffffffffffffffff1681526020018281526020019250505060405180910390f35b60005481565b6000600180549050905060608160405190808252806020026020018201604052801561065557816020015b610642610d83565b81526020019060019003908161063a5790505b50905060008090505b60018054905081101561079c57610673610db3565b6001828154811061068057fe5b906000526020600020906002020160000160009054906101000a900473ffffffffffffffffffffffffffffffffffffffff16816000019073ffffffffffffffffffffffffffffffffffffffff16908173ffffffffffffffffffffffffffffffffffffffff168152505060008160200181815250508083838151811061070157fe5b60200260200101819052506002819080600181540180825580915050906001820390600052602060002090600202016000909192909190915060008201518160000160006101000a81548173ffffffffffffffffffffffffffffffffffffffff021916908373ffffffffffffffffffffffffffffffffffffffff1602179055506020820151816001015550505050808060010191505061065e565b5060026003846040518082805190602001908083835b602083106107d557805182526020820191506020810190506020830392506107b2565b6001836020036101000a0380198251168184511680821785525050505050509050019150509081526020016040518091039020908054610816929190610de3565b50505050565b600080905060008090505b60018054905081101561091e573373ffffffffffffffffffffffffffffffffffffffff166003846040518082805190602001908083835b60208310610881578051825260208201915060208101905060208303925061085e565b6001836020036101000a038019825116818451168082178552505050505050905001915050908152602001604051809103902082815481106108bf57fe5b906000526020600020906002020160000160009054906101000a900473ffffffffffffffffffffffffffffffffffffffff1673ffffffffffffffffffffffffffffffffffffffff161415610911578091505b8080600101915050610827565b5060026003836040518082805190602001908083835b602083106109575780518252602082019150602081019050602083039250610934565b6001836020036101000a0380198251168184511680821785525050505050509050019150509081526020016040518091039020828154811061099557fe5b9060005260206000209060020201600101819055505050565b60006003836040518082805190602001908083835b602083106109e657805182526020820191506020810190506020830392506109c3565b6001836020036101000a03801982511681845116808217855250505050505090500191505090815260200160405180910390208281548110610a2457fe5b906000526020600020906002020160010154905092915050565b6000806000905060008090505b600180549050811015610afc5760016003856040518082805190602001908083835b60208310610a905780518252602082019150602081019050602083039250610a6d565b6001836020036101000a03801982511681845116808217855250505050505090500191505090815260200160405180910390208281548110610ace57fe5b9060005260206000209060020201600101541415610aef5781806001019250505b8080600101915050610a4b565b50600a60018054905060050281610b0f57fe5b04811115610b21576001915050610b27565b60009150505b919050565b600080905060008090505b600180549050811015610c2e573373ffffffffffffffffffffffffffffffffffffffff166003846040518082805190602001908083835b60208310610b915780518252602082019150602081019050602083039250610b6e565b6001836020036101000a03801982511681845116808217855250505050505090500191505090815260200160405180910390208281548110610bcf57fe5b906000526020600020906002020160000160009054906101000a900473ffffffffffffffffffffffffffffffffffffffff1673ffffffffffffffffffffffffffffffffffffffff161415610c21578091505b8080600101915050610b37565b5060016003836040518082805190602001908083835b60208310610c675780518252602082019150602081019050602083039250610c44565b6001836020036101000a03801982511681845116808217855250505050505090500191505090815260200160405180910390208281548110610ca557fe5b9060005260206000209060020201600101819055505050565b60018181548110610ccb57fe5b90600052602060002090600202016000915090508060000160009054906101000a900473ffffffffffffffffffffffffffffffffffffffff16908060010154905082565b6003828051602081018201805184825260208301602085012081835280955050505050508181548110610d3e57fe5b9060005260206000209060020201600091509150508060000160009054906101000a900473ffffffffffffffffffffffffffffffffffffffff16908060010154905082565b6040518060400160405280600073ffffffffffffffffffffffffffffffffffffffff168152602001600081525090565b6040518060400160405280600073ffffffffffffffffffffffffffffffffffffffff168152602001600081525090565b828054828255906000526020600020906002028101928215610e9b5760005260206000209160020282015b82811115610e9a5782826000820160009054906101000a900473ffffffffffffffffffffffffffffffffffffffff168160000160006101000a81548173ffffffffffffffffffffffffffffffffffffffff021916908373ffffffffffffffffffffffffffffffffffffffff16021790555060018201548160010155505091600201919060020190610e0e565b5b509050610ea89190610eac565b5090565b610ef791905b80821115610ef357600080820160006101000a81549073ffffffffffffffffffffffffffffffffffffffff0219169055600182016000905550600201610eb2565b5090565b9056fea265627a7a72315820168833b3ca2738aa88ef658b6177977b12432b455e73efa69859b20a2e4750ac64736f6c63430005100032",
  "source": "//// SPDX-License-Identifier: MIT\npragma solidity >=0.5.1 <0.7.0;\n\n\ncontract TradeApprovals {\n    uint256 public count;\n\n    struct Curator {\n        address addr;\n        int256 validated;\n    }\n\n    Curator[] public curators;\n    Curator[] tempC;\n\n    mapping(string => Curator[]) public approval;\n\n    constructor(address[] memory curatorsList) public {\n        for (uint256 i = 0; i < curatorsList.length; i++) {\n            Curator memory t;\n            t.addr = curatorsList[i];\n            t.validated = 0;\n            curators.push(t);\n            count ++;\n        }\n    }\n\n    function setApprovals(string memory _id) public {\n        uint256 cnt = curators.length;\n        Curator[] memory c = new Curator[](cnt);\n\n        for (uint256 i = 0; i < curators.length; i++) {\n            Curator memory t;\n            t.addr = curators[i].addr;\n            t.validated = 0;\n            c[i] = t;\n            tempC.push(t);\n        }\n\n        approval[_id] = tempC;\n    }\n    \n    function approve(string memory _id) public {\n        uint x = 0;\n        for(uint i=0; i<curators.length; i++){\n            if(approval[_id][i].addr == msg.sender){\n                x = i;\n            }\n        }\n        \n        approval[_id][x].validated = 1;\n    }\n    \n    function reject(string memory _id) public {\n        uint x = 0;\n        for(uint i=0; i<curators.length; i++){\n            if(approval[_id][i].addr == msg.sender){\n                x = i;\n            }\n        }\n        \n        approval[_id][x].validated = 2;\n    }\n    \n    function allApproved(string memory _id) public view returns(bool res){\n        uint counter = 0;\n        \n        for(uint i=0; i<curators.length; i++){\n            if(approval[_id][i].validated == 1){\n                counter ++;\n            }\n        }\n        \n        if(counter > (5*curators.length)/10){\n            return true;\n        }else{\n            return false;\n        }\n        \n    }    \n    \n    function getStatus(string memory _id, uint n) public view returns(int256 stat){\n    \treturn approval[_id][n].validated;\n    }\n    \n}\n",
  "sourcePath": "/home/ajinkya/Documents/Dapps/BlockTrade-UserApp/src/contracts/TradeApprovals.sol",
  "compiler": {
    "name": "solc",
    "version": "0.5.16+commit.9c3226ce.Emscripten.clang"
  },
  "schemaVersion": "3.2.0",
  "updatedAt": "2020-11-06T10:02:57.972Z",
  "networkType": "ethereum",
  "devdoc": {
    "methods": {}
  },
  "userdoc": {
    "methods": {}
  }
}