{
  "contractName": "Trades",
  "abi": [
    {
      "constant": true,
      "inputs": [],
      "name": "count",
      "outputs": [
        {
          "internalType": "uint256",
          "name": "",
          "type": "uint256"
        }
      ],
      "payable": false,
      "stateMutability": "view",
      "type": "function"
    },
    {
      "constant": true,
      "inputs": [
        {
          "internalType": "uint256",
          "name": "",
          "type": "uint256"
        }
      ],
      "name": "tradeId",
      "outputs": [
        {
          "internalType": "string",
          "name": "",
          "type": "string"
        }
      ],
      "payable": false,
      "stateMutability": "view",
      "type": "function"
    },
    {
      "constant": false,
      "inputs": [
        {
          "internalType": "string",
          "name": "_id",
          "type": "string"
        },
        {
          "internalType": "string",
          "name": "_tHash",
          "type": "string"
        }
      ],
      "name": "setTrade",
      "outputs": [],
      "payable": false,
      "stateMutability": "nonpayable",
      "type": "function"
    },
    {
      "constant": true,
      "inputs": [
        {
          "internalType": "string",
          "name": "_id",
          "type": "string"
        }
      ],
      "name": "getTrade",
      "outputs": [
        {
          "internalType": "string",
          "name": "_name",
          "type": "string"
        }
      ],
      "payable": false,
      "stateMutability": "view",
      "type": "function"
    },
    {
      "constant": true,
      "inputs": [
        {
          "internalType": "string",
          "name": "_id",
          "type": "string"
        }
      ],
      "name": "getStatus",
      "outputs": [
        {
          "internalType": "bool",
          "name": "_confirmation",
          "type": "bool"
        }
      ],
      "payable": false,
      "stateMutability": "view",
      "type": "function"
    }
  ],
  "bytecode": "0x608060405234801561001057600080fd5b506109bf806100206000396000f3fe608060405234801561001057600080fd5b50600436106100575760003560e01c806306661abd1461005c57806322b05ed21461007a57806365f53d621461014d5780639fa637a81461029f578063d64612a3146103d3575b600080fd5b61006461047a565b6040518082815260200191505060405180910390f35b6101336004803603602081101561009057600080fd5b81019080803590602001906401000000008111156100ad57600080fd5b8201836020820111156100bf57600080fd5b803590602001918460018302840111640100000000831117156100e157600080fd5b91908080601f016020809104026020016040519081016040528093929190818152602001838380828437600081840152601f19601f820116905080830192505050505050509192919290505050610480565b604051808215151515815260200191505060405180910390f35b61029d6004803603604081101561016357600080fd5b810190808035906020019064010000000081111561018057600080fd5b82018360208201111561019257600080fd5b803590602001918460018302840111640100000000831117156101b457600080fd5b91908080601f016020809104026020016040519081016040528093929190818152602001838380828437600081840152601f19601f8201169050808301925050505050505091929192908035906020019064010000000081111561021757600080fd5b82018360208201111561022957600080fd5b8035906020019184600183028401116401000000008311171561024b57600080fd5b91908080601f016020809104026020016040519081016040528093929190818152602001838380828437600081840152601f19601f820116905080830192505050505050509192919290505050610503565b005b610358600480360360208110156102b557600080fd5b81019080803590602001906401000000008111156102d257600080fd5b8201836020820111156102e457600080fd5b8035906020019184600183028401116401000000008311171561030657600080fd5b91908080601f016020809104026020016040519081016040528093929190818152602001838380828437600081840152601f19601f82011690508083019250505050505050919291929050505061069e565b6040518080602001828103825283818151815260200191508051906020019080838360005b8381101561039857808201518184015260208101905061037d565b50505050905090810190601f1680156103c55780820380516001836020036101000a031916815260200191505b509250505060405180910390f35b6103ff600480360360208110156103e957600080fd5b81019080803590602001909291905050506107ac565b6040518080602001828103825283818151815260200191508051906020019080838360005b8381101561043f578082015181840152602081019050610424565b50505050905090810190601f16801561046c5780820380516001836020036101000a031916815260200191505b509250505060405180910390f35b60015481565b60006003826040518082805190602001908083835b602083106104b85780518252602082019150602081019050602083039250610495565b6001836020036101000a038019825116818451168082178552505050505050905001915050908152602001604051809103902060010160009054906101000a900460ff169050919050565b6000829080600181540180825580915050906001820390600052602060002001600090919290919091509080519060200190610540929190610865565b505060026040518060400160405280838152602001600015158152509080600181540180825580915050906001820390600052602060002090600202016000909192909190915060008201518160000190805190602001906105a39291906108e5565b5060208201518160010160006101000a81548160ff0219169083151502179055505050506040518060400160405280828152602001600015158152506003836040518082805190602001908083835b6020831061061557805182526020820191506020810190506020830392506105f2565b6001836020036101000a038019825116818451168082178552505050505050905001915050908152602001604051809103902060008201518160000190805190602001906106649291906108e5565b5060208201518160010160006101000a81548160ff0219169083151502179055509050506001600081548092919060010191905055505050565b60606003826040518082805190602001908083835b602083106106d657805182526020820191506020810190506020830392506106b3565b6001836020036101000a03801982511681845116808217855250505050505090500191505090815260200160405180910390206000018054600181600116156101000203166002900480601f0160208091040260200160405190810160405280929190818152602001828054600181600116156101000203166002900480156107a05780601f10610775576101008083540402835291602001916107a0565b820191906000526020600020905b81548152906001019060200180831161078357829003601f168201915b50505050509050919050565b600081815481106107b957fe5b906000526020600020016000915090508054600181600116156101000203166002900480601f01602080910402602001604051908101604052809291908181526020018280546001816001161561010002031660029004801561085d5780601f106108325761010080835404028352916020019161085d565b820191906000526020600020905b81548152906001019060200180831161084057829003601f168201915b505050505081565b828054600181600116156101000203166002900490600052602060002090601f016020900481019282601f106108a657805160ff19168380011785556108d4565b828001600101855582156108d4579182015b828111156108d35782518255916020019190600101906108b8565b5b5090506108e19190610965565b5090565b828054600181600116156101000203166002900490600052602060002090601f016020900481019282601f1061092657805160ff1916838001178555610954565b82800160010185558215610954579182015b82811115610953578251825591602001919060010190610938565b5b5090506109619190610965565b5090565b61098791905b8082111561098357600081600090555060010161096b565b5090565b9056fea265627a7a723158208fd3f07d03142a1186b1c1ba8fe7e82b3af3dc483e675029678a92485c119c3b64736f6c63430005100032",
  "source": "//// SPDX-License-Identifier: MIT\npragma solidity >=0.5.0 <0.7.0;\n\n\ncontract Trades {\n\n    string[] public tradeId;\n    uint public count;\n\n    struct Deal {\n        string tradeHash;\n        bool isConfirmed;    \n    }\n\n    Deal[] deals;\n\n    mapping(string => Deal) tradeList;\n\n    function setTrade(string memory _id, string memory _tHash) public {\n        \n        tradeId.push(_id);\n        \n        deals.push(Deal({\n            tradeHash: _tHash,\n            isConfirmed: false\n        }));\n        \n        tradeList[_id] = Deal({\n            tradeHash: _tHash,\n            isConfirmed: false\n        });\n        \n        count++;\n    }   \n\n    function getTrade(string memory _id) public view returns(string memory _name){ \n        \n        return (tradeList[_id].tradeHash);\n    } \n    \n    function getStatus(string memory _id) public view returns(bool _confirmation){\n    \n    \treturn (tradeList[_id].isConfirmed);\n    }\n\n}\n",
  "sourcePath": "/home/ajinkya/Documents/Dapps/BlockTrade-UserApp/src/contracts/Trades.sol",
  "compiler": {
    "name": "solc",
    "version": "0.5.16+commit.9c3226ce.Emscripten.clang"
  },
  "schemaVersion": "3.2.0",
  "updatedAt": "2020-11-03T18:33:00.534Z",
  "networkType": "ethereum",
  "devdoc": {
    "methods": {}
  },
  "userdoc": {
    "methods": {}
  }
}